{
  "contractName": "CrowdsaleManager",
  "abi": [
    {
      "constant": false,
      "inputs": [
        {
          "name": "_accessManager",
          "type": "address"
        }
      ],
      "name": "updateAccessManager",
      "outputs": [],
      "payable": false,
      "stateMutability": "nonpayable",
      "type": "function"
    },
    {
      "constant": false,
      "inputs": [
        {
          "name": "_currencySymbol",
          "type": "bytes32"
        },
        {
          "name": "_borrowerId",
          "type": "bytes32"
        },
        {
          "name": "_invoiceId",
          "type": "bytes32"
        },
        {
          "name": "_invoiceNumber",
          "type": "string"
        },
        {
          "name": "_invoiceAmount",
          "type": "uint256"
        },
        {
          "name": "_fundingGoal",
          "type": "uint256"
        },
        {
          "name": "_platformTaxPercent",
          "type": "uint256"
        },
        {
          "name": "_signedDocumentIPFSHash",
          "type": "string"
        }
      ],
      "name": "createCrowdsale",
      "outputs": [
        {
          "name": "crowdsaleAddr",
          "type": "address"
        }
      ],
      "payable": false,
      "stateMutability": "nonpayable",
      "type": "function"
    },
    {
      "constant": true,
      "inputs": [],
      "name": "AM",
      "outputs": [
        {
          "name": "",
          "type": "address"
        }
      ],
      "payable": false,
      "stateMutability": "view",
      "type": "function"
    },
    {
      "inputs": [
        {
          "name": "_accessManager",
          "type": "address"
        }
      ],
      "payable": false,
      "stateMutability": "nonpayable",
      "type": "constructor"
    }
  ],
  "bytecode": "0x6060604052341561000f57600080fd5b604051602080612fc18339810160405280805160008054600160a060020a03909216600160a060020a03199092169190911790555050612f6d806100546000396000f300606060405263ffffffff60e060020a60003504166302ab72c48114610039578063cb4671a21461005a578063f7f01b4b1461012757600080fd5b341561004457600080fd5b610058600160a060020a036004351661013a565b005b341561006557600080fd5b61010b600480359060248035916044359160849060643590810190830135806020601f820181900481020160405190810160405281815292919060208401838380828437509496863596602080820135975060408083013597509295506080820194506060909101358501808201935035918291601f8301819004810201905190810160405281815292919060208401838380828437509496506101ed95505050505050565b604051600160a060020a03909116815260200160405180910390f35b341561013257600080fd5b61010b6104bc565b60008054600160a060020a031690630c68ba219033906040516020015260405160e060020a63ffffffff8416028152600160a060020a039091166004820152602401602060405180830381600087803b151561019557600080fd5b6102c65a03f115156101a657600080fd5b5050506040518051151560011490506101be57600080fd5b6000805473ffffffffffffffffffffffffffffffffffffffff1916600160a060020a0392909216919091179055565b60008054600160a060020a03166305fd22d033836040516020015260405160e060020a63ffffffff8416028152600160a060020a039091166004820152602401602060405180830381600087803b151561024657600080fd5b6102c65a03f1151561025757600080fd5b50505060405180511515600114905061026f57600080fd5b6000888152600260205260409081902086918890518082805190602001908083835b602083106102b05780518252601f199092019160209182019101610291565b6001836020036101000a0380198251168184511680821785525050505050509050019150509081526020016040519081900390205414156102f057600080fd5b6000888152600260205260409081902086918890518082805190602001908083835b602083106103315780518252601f199092019160209182019101610312565b6001836020036101000a03801982511681845116808217855250505050505090500191505090815260200160405190819003902055600054600160a060020a031689898989898989896103826104cb565b600160a060020a038a16815260208101899052604081018890526060810187905260a0810185905260c0810184905260e081018390526101206080820181815290610100830190830188818151815260200191508051906020019080838360005b838110156103fb5780820151838201526020016103e3565b50505050905090810190601f1680156104285780820380516001836020036101000a031916815260200191505b50838103825284818151815260200191508051906020019080838360005b8381101561045e578082015183820152602001610446565b50505050905090810190601f16801561048b5780820380516001836020036101000a031916815260200191505b509b505050505050505050505050604051809103906000f08015156104af57600080fd5b9998505050505050505050565b600054600160a060020a031681565b604051612a66806104dc833901905600606060405234156200001057600080fd5b60405162002a6638038062002a66833981016040528080519190602001805191906020018051919060200180519190602001805182019190602001805191906020018051919060200180519190602001805160008054600160a060020a031916600160a060020a038d1617905560018a9055600489905560028890559190910190506003858051620000a79291602001906200010d565b506005849055600683905560088290556009818051620000cc9291602001906200010d565b50505062015180420160075550506000805460a060020a60ff0219167401000000000000000000000000000000000000000017905550620001b29350505050565b828054600181600116156101000203166002900490600052602060002090601f016020900481019282601f106200015057805160ff191683800117855562000180565b8280016001018555821562000180579182015b828111156200018057825182559160200191906001019062000163565b506200018e92915062000192565b5090565b620001af91905b808211156200018e576000815560010162000199565b90565b6128a480620001c26000396000f300606060405236156101fe5763ffffffff60e060020a60003504166302ab72c4811461020357806312fa769f1461022457806315b204541461024957806319a0e16d14610289578063200d2ed2146102a257806324668473146102d957806329dcb0cf1461036357806343bf9936146103765780634e69d5601461039d57806355d97ba8146103c65780635cfa4d60146103d95780635e054efb146103ec5780636a20a8a1146103ff5780636fbefedf1461041257806370c86286146104255780637478901d146104385780637a3a0e841461044b5780637b69c9ae1461045e578063816d51451461047157806385d8ed7d146104845780638688b4df1461049a5780638942e19d146104cf5780638a8f5af7146104e257806396324bd4146104f5578063968c4209146105bb578063983c0a01146105ce578063a203886e146105e1578063a29b8b91146105f7578063a4d8a8da1461060a578063a7b80b6c1461061d578063ae22824a14610630578063b503d82914610643578063b84afbb414610711578063ceb6065414610724578063cfece8ef146107d2578063dcb190e3146107e5578063dee50b24146107f8578063e1c25467146108a0578063ec0a9974146108b6578063efd3bc0c146108c9578063f29c2e8b146108dc578063f52eb3851461093a578063f7f01b4b1461094d578063f97846011461097c575b600080fd5b341561020e57600080fd5b610222600160a060020a036004351661098f565b005b341561022f57600080fd5b610237610a42565b60405190815260200160405180910390f35b341561025457600080fd5b61025f600435610a48565b604051808460ff1660ff168152602001838152602001828152602001935050505060405180910390f35b341561029457600080fd5b610222600435602435610ad9565b34156102ad57600080fd5b6102b5610cd1565b604051808260058111156102c557fe5b60ff16815260200191505060405180910390f35b34156102e457600080fd5b6102ec610ce1565b60405160208082528190810183818151815260200191508051906020019080838360005b83811015610328578082015183820152602001610310565b50505050905090810190601f1680156103555780820380516001836020036101000a031916815260200191505b509250505060405180910390f35b341561036e57600080fd5b610237610d7f565b341561038157600080fd5b610389610d85565b604051901515815260200160405180910390f35b34156103a857600080fd5b6103b0610e06565b60405160ff909116815260200160405180910390f35b34156103d157600080fd5b610389610e24565b34156103e457600080fd5b610237610e32565b34156103f757600080fd5b610389610e38565b341561040a57600080fd5b610237610e47565b341561041d57600080fd5b610237610e4d565b341561043057600080fd5b610237610e53565b341561044357600080fd5b610237610e59565b341561045657600080fd5b610237610e5f565b341561046957600080fd5b610389610e65565b341561047c57600080fd5b610389610e6e565b341561048f57600080fd5b610222600435610e7c565b34156104a557600080fd5b6104b3600435602435610f83565b60405160ff909216825260208201526040908101905180910390f35b34156104da57600080fd5b610222611015565b34156104ed57600080fd5b6102ec6110ce565b341561050057600080fd5b61050b600435611139565b60405186815260408101859052606081018490526080810183905281151560a082015260c0602082018181528754600260001961010060018416150201909116049183018290529060e0830190889080156105a75780601f1061057c576101008083540402835291602001916105a7565b820191906000526020600020905b81548152906001019060200180831161058a57829003601f168201915b505097505050505050505060405180910390f35b34156105c657600080fd5b610237611181565b34156105d957600080fd5b610389611187565b34156105ec57600080fd5b61022260043561126e565b341561060257600080fd5b61038961139e565b341561061557600080fd5b6102376113ad565b341561062857600080fd5b6103896113b3565b341561063b57600080fd5b61038961143d565b341561064e57600080fd5b6106e160046024813581810190830135806020601f8201819004810201604051908101604052818152929190602084018383808284375094968635966020808201359750919550606081019450604090810135860180830194503592508291601f830181900481020190519081016040528181529291906020840183838082843750949650509335935061144b92505050565b60405160ff9094168452602084019290925260408084019190915290151560608301526080909101905180910390f35b341561071c57600080fd5b610237611565565b341561072f57600080fd5b61073a60043561156b565b604051808060200186815260200185815260200184815260200183151515158152602001828103825287818151815260200191508051906020019080838360005b8381101561079357808201518382015260200161077b565b50505050905090810190601f1680156107c05780820380516001836020036101000a031916815260200191505b50965050505050505060405180910390f35b34156107dd57600080fd5b6103896117f8565b34156107f057600080fd5b61038961187e565b341561080357600080fd5b61081160043560243561188d565b60405184815260408101839052811515606082015260806020820181815290820185818151815260200191508051906020019080838360005b8381101561086257808201518382015260200161084a565b50505050905090810190601f16801561088f5780820380516001836020036101000a031916815260200191505b509550505050505060405180910390f35b34156108ab57600080fd5b6103896004356119f4565b34156108c157600080fd5b610389611a54565b34156108d457600080fd5b610237611a5d565b34156108e757600080fd5b6106e1600480359060248035919060649060443590810190830135806020601f820181900481020160405190810160405281815292919060208401838380828437509496505093359350611a6392505050565b341561094557600080fd5b6104b361210c565b341561095857600080fd5b61096061217b565b604051600160a060020a03909116815260200160405180910390f35b341561098757600080fd5b61023761218a565b60008054600160a060020a031690630c68ba219033906040516020015260405160e060020a63ffffffff8416028152600160a060020a039091166004820152602401602060405180830381600087803b15156109ea57600080fd5b6102c65a03f115156109fb57600080fd5b505050604051805115156001149050610a1357600080fd5b6000805473ffffffffffffffffffffffffffffffffffffffff1916600160a060020a0392909216919091179055565b600f5481565b6000818152600b602052604081206001810154815460029092015460ff161515610a7b5750600191506000905080610ad2565b610ac3600a83815481101515610a8d57fe5b906000526020600020906007020160030182815481101515610aab57fe5b90600052602060002090600602016001015485612190565b151560011415610ad257600092505b9193909250565b60008054600160a060020a0316906305fd22d09033906040516020015260405160e060020a63ffffffff8416028152600160a060020a039091166004820152602401602060405180830381600087803b1515610b3457600080fd5b6102c65a03f11515610b4557600080fd5b505050604051805115156001149050610b5d57600080fd5b6001600a83815481101515610b6e57fe5b906000526020600020906007020160030182815481101515610b8c57fe5b60009182526020909120600690910201600501805460ff1916911515919091179055600a805483908110610bbc57fe5b6000918252602090912060056007909202010180546001019055600a805483908110610be457fe5b6000918252602090912060036007909202010154600a805484908110610c0657fe5b9060005260206000209060070201600501541415610ccd576001600a83815481101515610c2f57fe5b60009182526020909120600790910201600601805460ff1916911515919091179055600c80546001908101909155600a541415610c9357600e5460ff1615610c8657610c79612265565b610c8161228e565b610c8e565b610c8e612265565b610ccd565b600c54600a54600019011415610cab57610c8e612265565b600c54600a54148015610cc05750600e5460ff165b15610ccd57610ccd61228e565b5050565b60005460a060020a900460ff1681565b60038054600181600116156101000203166002900480601f016020809104026020016040519081016040528092919081815260200182805460018160011615610100020316600290048015610d775780601f10610d4c57610100808354040283529160200191610d77565b820191906000526020600020905b815481529060010190602001808311610d5a57829003601f168201915b505050505081565b60075481565b6000600754421115610dff57600160005460a060020a900460ff166005811115610dab57fe5b1415610df7576000805460a060020a60ff02191660a160020a179055600080516020612859833981519152600160405160ff909116815260200160405180910390a1610df56117f8565b505b506001610e03565b5060005b90565b6000805460a060020a900460ff166005811115610e1f57fe5b905090565b601054610100900460ff1681565b600d5481565b60105462010000900460ff1681565b600f5490565b60045481565b60025481565b60055481565b60065481565b60105460ff1681565b600e54610100900460ff1690565b60008054600160a060020a0316906305fd22d09033906040516020015260405160e060020a63ffffffff8416028152600160a060020a039091166004820152602401602060405180830381600087803b1515610ed757600080fd5b6102c65a03f11515610ee857600080fd5b505050604051805115156001149050610f0057600080fd5b600360005460a060020a900460ff166005811115610f1a57fe5b1415610f8057600f8190556000805460a060020a60ff021916740400000000000000000000000000000000000000001790557fe2630c8bd63a0cac2936da8f1d4fe0d13a8662daca441639630c7e55095683238160405190815260200160405180910390a15b50565b6000818152600b60205260408120600181015481546002909201549194509060ff161515610fb7575060019050600061100e565b610fff600a85815481101515610fc957fe5b906000526020600020906007020160030182815481101515610fe757fe5b90600052602060002090600602016001015484612190565b15156001141561100e57600091505b9250929050565b60008054600160a060020a0316906305fd22d09033906040516020015260405160e060020a63ffffffff8416028152600160a060020a039091166004820152602401602060405180830381600087803b151561107057600080fd5b6102c65a03f1151561108157600080fd5b50505060405180511515600114905061109957600080fd5b6110a16117f8565b156110ab57600080fd5b6010805460ff19166001908117909155600a5414156110cc576110cc612265565b565b60098054600181600116156101000203166002900480601f016020809104026020016040519081016040528092919081815260200182805460018160011615610100020316600290048015610d775780601f10610d4c57610100808354040283529160200191610d77565b600a80548290811061114757fe5b6000918252602090912060079091020180546002820154600483015460058401546006850154939550600190940193919290919060ff1686565b60015481565b60008054600160a060020a03166305fd22d033836040516020015260405160e060020a63ffffffff8416028152600160a060020a039091166004820152602401602060405180830381600087803b15156111e057600080fd5b6102c65a03f115156111f157600080fd5b50505060405180511515600114905061120957600080fd5b600160005460a060020a900460ff16600581111561122357fe5b1415610dff576000805460a060020a60ff02191660a160020a17905560008051602061285983398151915260045b60405160ff909116815260200160405180910390a1506001610e03565b600160005460a060020a900460ff16600581111561128857fe5b1415610f805760008054600160a060020a03169063fda089589033906040516020015260405160e060020a63ffffffff8416028152600160a060020a039091166004820152602401602060405180830381600087803b15156112e957600080fd5b6102c65a03f115156112fa57600080fd5b50505060405180511515600114905061131257600080fd5b61131a6117f8565b1561132457600080fd5b6000600a8281548110151561133557fe5b9060005260206000209060070201600401541115610f8057600d819055600e805460ff191660011790556000805460a060020a60ff02191660a160020a179055600080516020612859833981519152600360405160ff909116815260200160405180910390a150565b600e5462010000900460ff1681565b600d5490565b60008054600160a060020a031663fda0895833836040516020015260405160e060020a63ffffffff8416028152600160a060020a039091166004820152602401602060405180830381600087803b151561140c57600080fd5b6102c65a03f1151561141d57600080fd5b50505060405180511515600114905061143557600080fd5b610e1f61233b565b600e54610100900460ff1681565b6000808080808080600160005460a060020a900460ff16600581111561146d57fe5b14156115565760008054600160a060020a0316906305fd22d09033906040516020015260405160e060020a63ffffffff8416028152600160a060020a039091166004820152602401602060405180830381600087803b15156114ce57600080fd5b6102c65a03f115156114df57600080fd5b5050506040518051151560011490506114f757600080fd5b6115008a610a48565b91945092509050600160ff841614156115415761151d8c8c6123df565b9097509150600160ff88161415611541576001965060009550859450849350611556565b61154d828b8b8b611a63565b96509650965096505b50505095509550955095915050565b600a5490565b6115736125da565b6000806000806115816125ec565b600a80548890811061158f57fe5b906000526020600020906007020160e0604051908101604052908160008201548152602001600182018054600181600116156101000203166002900480601f01602080910402602001604051908101604052809291908181526020018280546001816001161561010002031660029004801561164c5780601f106116215761010080835404028352916020019161164c565b820191906000526020600020905b81548152906001019060200180831161162f57829003601f168201915b50505050508152602001600282015481526020016003820180548060200260200160405190810160405281815291906000602084015b8282101561179a57600084815260209020600683020160c0604051908101604052908160008201548152602001600182015460001916600019168152602001600282018054600181600116156101000203166002900480601f0160208091040260200160405190810160405280929190818152602001828054600181600116156101000203166002900480156117595780601f1061172e57610100808354040283529160200191611759565b820191906000526020600020905b81548152906001019060200180831161173c57829003601f168201915b505050918352505060038201546020808301919091526004830154604083015260059092015460ff1615156060909101529082526001929092019101611682565b5050509082525060048201546020808301919091526005830154604083015260069092015460ff161515606090910152909150810151816040015182606001515183608001518460c00151939b929a50909850965090945092505050565b60006007544211801561180b5750600a54155b15610dff57600160005460a060020a900460ff16600581111561182a57fe5b148061184d5750600260005460a060020a900460ff16600581111561184b57fe5b145b15610df7576000805460a060020a60ff02191660a160020a1790556000805160206128598339815191526002611251565b600e5462010000900460ff1690565b60006118976125da565b6000806118a2612638565b600a8054889081106118b057fe5b9060005260206000209060070201600301868154811015156118ce57fe5b906000526020600020906006020160c0604051908101604052908160008201548152602001600182015460001916600019168152602001600282018054600181600116156101000203166002900480601f01602080910402602001604051908101604052809291908181526020018280546001816001161561010002031660029004801561199d5780601f106119725761010080835404028352916020019161199d565b820191906000526020600020905b81548152906001019060200180831161198057829003601f168201915b505050918352505060038201546020808301919091526004830154604083015260059092015460ff161515606090910152909150810151816040015182606001518360a00151929a91995097509095509350505050565b6000806000806000806000611a0888610a48565b91975095509350611a19858561188d565b9295509350909150611a2d90508884612190565b8015611a365750805b15611a445760019650611a49565b600096505b505050505050919050565b600e5460ff1681565b60085481565b60008080808080600160005460a060020a900460ff166005811115611a8457fe5b14156120ff5760008054600160a060020a0316906305fd22d09033906040516020015260405160e060020a63ffffffff8416028152600160a060020a039091166004820152602401602060405180830381600087803b1515611ae557600080fd5b6102c65a03f11515611af657600080fd5b505050604051805115156001149050611b0e57600080fd5b611b16610d85565b151560011480611b24575086155b80611b4e5750600a80548b908110611b3857fe5b9060005260206000209060070201600201546000145b15611b665760019550600094508493508392506120ff565b600a80548b908110611b7457fe5b90600052602060002090600702016002015487600a8c815481101515611b9657fe5b906000526020600020906007020160040154011115611bfc57611bf9600a8b815481101515611bc157fe5b906000526020600020906007020160020154600a8c815481101515611be257fe5b9060005260206000209060070201600401546125a4565b96505b611c068a8a610f83565b909250905060ff82161515611ce657611c5d600a8b815481101515611c2757fe5b906000526020600020906007020160030182815481101515611c4557fe5b906000526020600020906006020160030154886125b6565b600a80548c908110611c6b57fe5b906000526020600020906007020160030182815481101515611c8957fe5b90600052602060002090600602016003018190555042600a8b815481101515611cae57fe5b906000526020600020906007020160030182815481101515611ccc57fe5b906000526020600020906006020160040181905550611e3a565b600a80548b908110611cf457fe5b90600052602060002090600702016003018054806001018281611d179190612659565b9160005260206000209060060201600060c060405190810160405280600a8f815481101515611d4257fe5b6000918252602080832060036007909302019190910154835282018f9052604082018e9052606082018d905242608083015260a0909101529190508151815560208201516001820155604082015181600201908051611da592916020019061268a565b50606082015181600301556080820151816004015560a0820151600591909101805460ff191691151591909117905550506000898152600b602052604090208a9055600a8054600191908c908110611df957fe5b60009182526020808320600360079093020191909101548c8352600b90915260409091209190036001808301919091556002909101805460ff191690911790555b611e64600a8b815481101515611e4c57fe5b906000526020600020906007020160040154886125b6565b600a80548c908110611e7257fe5b9060005260206000209060070201600401819055507f2ca5aa4afa04f11467caafe7b396d938bc0fdd693831267b9b682e9d2924fab68a8a8a8a604051848152602081018490526060810182905260806040820181815290820184818151815260200191508051906020019080838360005b83811015611efc578082015183820152602001611ee4565b50505050905090810190601f168015611f295780820380516001836020036101000a031916815260200191505b509550505050505060405180910390a1600a80548b908110611f4757fe5b906000526020600020906007020160020154600a8b815481101515611f6857fe5b600091825260209091206004600790920201015414925060018314156120d157600d8a9055600e805460ff191660011790556000805460a060020a60ff02191660a160020a179055600a80547ffc283d648f2d223664cf7012091e001a932bf7f34644e0f5f58196aab51df5a7918c9182908110611fe257fe5b9060005260206000209060070201600101600a8d81548110151561200257fe5b906000526020600020906007020160020154604051838152604081018290526060602082018181528454600260001961010060018416150201909116049183018290529060808301908590801561209a5780601f1061206f5761010080835404028352916020019161209a565b820191906000526020600020905b81548152906001019060200180831161207d57829003601f168201915b505094505050505060405180910390a1600080516020612859833981519152600060405160ff909116815260200160405180910390a15b600087600a8c8154811015156120e357fe5b6000918252602090912060026007909202010154919750955093505b5050945094509450949050565b600080600260005460a060020a900460ff16600581111561212957fe5b148015612139575060105460ff16155b1561216f576000600a600d5481548110151561215157fe5b90600052602060002090600702016004015481915091509150612177565b506001905060005b9091565b600054600160a060020a031681565b600c5481565b6000805b6020811015612259578281602081106121a957fe5b1a7f0100000000000000000000000000000000000000000000000000000000000000027effffffffffffffffffffffffffffffffffffffffffffffffffffffffffffff191684826020811015156121fc57fe5b1a7f0100000000000000000000000000000000000000000000000000000000000000027effffffffffffffffffffffffffffffffffffffffffffffffffffffffffffff1916141515612251576000915061225e565b600101612194565b600191505b5092915050565b61226d6117f8565b1561227757600080fd5b6010805461ff001916610100179055610f8061233b565b6122966117f8565b156122a057600080fd5b6010805462ff00001916620100001790556000805460a060020a60ff02191674050000000000000000000000000000000000000000179055600d54600a80546001929081106122eb57fe5b60009182526020909120600790910201600601805460ff19169115159190911790557f4b0b9fa94d2929dd952e727b42973b107ca8e2d345ddac00a3c776d72100d03060405160405180910390a1565b6000600260005460a060020a900460ff16600581111561235757fe5b14801561236b575060105460ff1615156001145b8015612384575060105460ff6101009091041615156001145b15610e03576000805460a060020a60ff021916740300000000000000000000000000000000000000001790557fb13d124f2b914dc60f0eadd4711ae8ebb3d2a4d235b29ef46b4379af2e9c326a60405160405180910390a190565b600080600160005460a060020a900460ff1660058111156123fc57fe5b141561100e5761240a610d85565b15801561241957506006548310155b801561242757506005548311155b1561256c57600a80549061243e9060018301612708565b905080600a8281548110151561245057fe5b6000918252602090912060079091020155600a80548591908390811061247257fe5b906000526020600020906007020160010190805161249492916020019061268a565b5082600a828154811015156124a557fe5b9060005260206000209060070201600201819055507f8aceed8de06c3ec19c51e5ab9c1ca2eb054cbd116661d1282071fd7703cc353e8185856040518084815260200180602001838152602001828103825284818151815260200191508051906020019080838360005b8381101561252757808201518382015260200161250f565b50505050905090810190601f1680156125545780820380516001836020036101000a031916815260200191505b5094505050505060405180910390a16000915061100e565b7fcef766fe8a34fc9d432cf018a05286683afedc6cb6f3703bd05ca86684199f4860405160405180910390a15060019050600061100e565b6000828211156125b057fe5b50900390565b60008282018381108015906125cb5750828110155b15156125d357fe5b9392505050565b60206040519081016040526000815290565b60e060405190810160405280600081526020016126076125da565b81526020016000815260200161261b6125da565b815260200160008152602001600081526020016000151581525090565b60c0604051908101604090815260008083526020830152810161261b6125da565b815481835581811511612685576006028160060283600052602060002091820191016126859190612734565b505050565b828054600181600116156101000203166002900490600052602060002090601f016020900481019282601f106126cb57805160ff19168380011785556126f8565b828001600101855582156126f8579182015b828111156126f85782518255916020019190600101906126dd565b5061270492915061277e565b5090565b815481835581811511612685576007028160070283600052602060002091820191016126859190612798565b610e0391905b808211156127045760008082556001820181905561275b60028301826127f3565b50600060038201819055600482015560058101805460ff1916905560060161273a565b610e0391905b808211156127045760008155600101612784565b610e0391905b808211156127045760008082556127b860018301826127f3565b60028201600090556003820160006127d09190612837565b50600060048201819055600582015560068101805460ff1916905560070161279e565b50805460018160011615610100020316600290046000825580601f106128195750610f80565b601f016020900490600052602060002090810190610f80919061277e565b5080546000825560060290600052602060002090810190610f8091906127345600c5edcd44be892ee502ab20d3835c4cd438b153df077c8b3e63c0bb631c6fee43a165627a7a72305820f75d823bb6337a7a7af7cade4cbbd95e5c1295f9e1c56dde7d8125608dec364e0029a165627a7a72305820cbec52c51f393f3f87e484ac376ff3c811ac9da1f6bc755b4adc99e23021b7480029",
  "source": "pragma solidity ^0.4.17;\n\nimport \"./Crowdsale.sol\";\n\n\n/// @title Crowdsalemanager contract\ncontract CrowdsaleManager is withAccessManager {\n\n    // FIELDS\n\n\n    // This CrowdsaleEntry variable represents\n    // the structure/details of individual invoice crowdsales\n    // with details to be recorded for each crowdsale entry.\n    struct CrowdsaleEntry {\n        address addr; // an address\n        bytes32 borrowerId; // borrowerd id\n        bytes32 invoiceId; // invoice id\n        bytes32 invoiceNumber; // invoice number\n        uint invoiceAmount; // invoice amount\n        uint fundingGoal; // funding goal\n    }\n\n    \n    CrowdsaleEntry[] crowdsales;\n\n    // The variable invoicesIndex keeps track of invoices by borrower ID, \n    // invoice number and invoice amount to keep track of crowdsale \n    // invoices and restrict duplicate crowdsales for the same invoice.\n    mapping(bytes32 => mapping(string => uint)) invoicesIndex;\n\n    // NON-CONSTANT METHODS\n\n    // The constructor method called when this contract instance is deployed \n    // using a modifier the _accessManager address\n    function CrowdsaleManager(address _accessManager) public\n        withAccessManager(_accessManager) {} \n\n    /** @dev Creates a new crowdsale for an invoice.\n      * @param _currencySymbol The currency symbol.\n      * @param _borrowerId The borrower ID.\n      * @param _invoiceId The invoice ID.\n      * @param _invoiceNumber The invoice number.\n      * @param _fundingGoal The funding goal.\n      * @param _platformTaxPercent The tax percentage\n      * @param _signedDocumentIPFSHash The hash of a document stored in IPFS.\n      * @return crowdsaleAddr The crowdsale address derived from deploying a crowdsale.\n      */\n    function createCrowdsale(\n            bytes32 _currencySymbol,\n            bytes32 _borrowerId,\n            bytes32 _invoiceId,\n            string _invoiceNumber,\n            uint _invoiceAmount,\n            uint _fundingGoal,\n            uint _platformTaxPercent,\n            string _signedDocumentIPFSHash)\n        public\n        onlyPopulous\n        returns (address crowdsaleAddr)\n    {\n        // Avoid using the same invoice in more than crowdsale\n        require(invoicesIndex[_borrowerId][_invoiceNumber] != _invoiceAmount);\n        invoicesIndex[_borrowerId][_invoiceNumber] = _invoiceAmount;\n\n        crowdsaleAddr = new Crowdsale(\n            address(AM),\n            _currencySymbol,\n            _borrowerId,\n            _invoiceId,\n            _invoiceNumber,\n            _invoiceAmount,\n            _fundingGoal,\n            _platformTaxPercent,\n            _signedDocumentIPFSHash\n        );\n    }\n}",
  "sourcePath": "/Users/najienka/Desktop/populous/populous-smartcontracts/contracts/CrowdsaleManager.sol",
  "schemaVersion": "1.0.0",
  "updatedAt": "2018-01-02T15:52:32.886Z"
}