{
  "contractName": "CurrencyToken",
  "abi": [
    {
      "constant": false,
      "inputs": [
        {
          "name": "amount",
          "type": "uint256"
        },
        {
          "name": "from",
          "type": "address"
        }
      ],
      "name": "destroyTokensFrom",
      "outputs": [
        {
          "name": "success",
          "type": "bool"
        }
      ],
      "payable": false,
      "stateMutability": "nonpayable",
      "type": "function"
    },
    {
      "constant": false,
      "inputs": [
        {
          "name": "_accessManager",
          "type": "address"
        }
      ],
      "name": "updateAccessManager",
      "outputs": [],
      "payable": false,
      "stateMutability": "nonpayable",
      "type": "function"
    },
    {
      "constant": true,
      "inputs": [],
      "name": "name",
      "outputs": [
        {
          "name": "",
          "type": "bytes32"
        }
      ],
      "payable": false,
      "stateMutability": "view",
      "type": "function"
    },
    {
      "constant": false,
      "inputs": [
        {
          "name": "_spender",
          "type": "address"
        },
        {
          "name": "_value",
          "type": "uint256"
        }
      ],
      "name": "approve",
      "outputs": [
        {
          "name": "success",
          "type": "bool"
        }
      ],
      "payable": false,
      "stateMutability": "nonpayable",
      "type": "function"
    },
    {
      "constant": true,
      "inputs": [
        {
          "name": "_addr",
          "type": "address"
        }
      ],
      "name": "isContract",
      "outputs": [
        {
          "name": "is_contract",
          "type": "bool"
        }
      ],
      "payable": false,
      "stateMutability": "view",
      "type": "function"
    },
    {
      "constant": true,
      "inputs": [],
      "name": "totalSupply",
      "outputs": [
        {
          "name": "",
          "type": "uint256"
        }
      ],
      "payable": false,
      "stateMutability": "view",
      "type": "function"
    },
    {
      "constant": false,
      "inputs": [
        {
          "name": "_from",
          "type": "address"
        },
        {
          "name": "_to",
          "type": "address"
        },
        {
          "name": "_value",
          "type": "uint256"
        }
      ],
      "name": "transferFrom",
      "outputs": [
        {
          "name": "success",
          "type": "bool"
        }
      ],
      "payable": false,
      "stateMutability": "nonpayable",
      "type": "function"
    },
    {
      "constant": true,
      "inputs": [],
      "name": "decimals",
      "outputs": [
        {
          "name": "",
          "type": "uint8"
        }
      ],
      "payable": false,
      "stateMutability": "view",
      "type": "function"
    },
    {
      "constant": false,
      "inputs": [
        {
          "name": "_to",
          "type": "address"
        },
        {
          "name": "_value",
          "type": "uint256"
        },
        {
          "name": "_data",
          "type": "bytes"
        }
      ],
      "name": "transferToContract",
      "outputs": [
        {
          "name": "success",
          "type": "bool"
        }
      ],
      "payable": false,
      "stateMutability": "nonpayable",
      "type": "function"
    },
    {
      "constant": false,
      "inputs": [
        {
          "name": "amount",
          "type": "uint256"
        }
      ],
      "name": "destroyTokens",
      "outputs": [
        {
          "name": "success",
          "type": "bool"
        }
      ],
      "payable": false,
      "stateMutability": "nonpayable",
      "type": "function"
    },
    {
      "constant": true,
      "inputs": [
        {
          "name": "_owner",
          "type": "address"
        }
      ],
      "name": "balanceOf",
      "outputs": [
        {
          "name": "balance",
          "type": "uint256"
        }
      ],
      "payable": false,
      "stateMutability": "view",
      "type": "function"
    },
    {
      "constant": true,
      "inputs": [],
      "name": "symbol",
      "outputs": [
        {
          "name": "",
          "type": "bytes32"
        }
      ],
      "payable": false,
      "stateMutability": "view",
      "type": "function"
    },
    {
      "constant": false,
      "inputs": [
        {
          "name": "amount",
          "type": "uint256"
        }
      ],
      "name": "mintTokens",
      "outputs": [],
      "payable": false,
      "stateMutability": "nonpayable",
      "type": "function"
    },
    {
      "constant": false,
      "inputs": [
        {
          "name": "_to",
          "type": "address"
        },
        {
          "name": "_value",
          "type": "uint256"
        }
      ],
      "name": "transfer",
      "outputs": [
        {
          "name": "success",
          "type": "bool"
        }
      ],
      "payable": false,
      "stateMutability": "nonpayable",
      "type": "function"
    },
    {
      "constant": false,
      "inputs": [
        {
          "name": "_to",
          "type": "address"
        },
        {
          "name": "_value",
          "type": "uint256"
        }
      ],
      "name": "transferToAddress",
      "outputs": [
        {
          "name": "success",
          "type": "bool"
        }
      ],
      "payable": false,
      "stateMutability": "nonpayable",
      "type": "function"
    },
    {
      "constant": false,
      "inputs": [
        {
          "name": "_to",
          "type": "address"
        },
        {
          "name": "_value",
          "type": "uint256"
        },
        {
          "name": "_data",
          "type": "bytes"
        }
      ],
      "name": "transfer",
      "outputs": [
        {
          "name": "success",
          "type": "bool"
        }
      ],
      "payable": false,
      "stateMutability": "nonpayable",
      "type": "function"
    },
    {
      "constant": true,
      "inputs": [
        {
          "name": "_owner",
          "type": "address"
        },
        {
          "name": "_spender",
          "type": "address"
        }
      ],
      "name": "allowance",
      "outputs": [
        {
          "name": "remaining",
          "type": "uint256"
        }
      ],
      "payable": false,
      "stateMutability": "view",
      "type": "function"
    },
    {
      "constant": true,
      "inputs": [],
      "name": "AM",
      "outputs": [
        {
          "name": "",
          "type": "address"
        }
      ],
      "payable": false,
      "stateMutability": "view",
      "type": "function"
    },
    {
      "inputs": [
        {
          "name": "_accessManager",
          "type": "address"
        },
        {
          "name": "_tokenName",
          "type": "bytes32"
        },
        {
          "name": "_decimalUnits",
          "type": "uint8"
        },
        {
          "name": "_tokenSymbol",
          "type": "bytes32"
        }
      ],
      "payable": false,
      "stateMutability": "nonpayable",
      "type": "constructor"
    },
    {
      "anonymous": false,
      "inputs": [
        {
          "indexed": false,
          "name": "_to",
          "type": "address"
        },
        {
          "indexed": false,
          "name": "_value",
          "type": "uint256"
        },
        {
          "indexed": false,
          "name": "_data",
          "type": "bytes"
        }
      ],
      "name": "ContractTransfer",
      "type": "event"
    },
    {
      "anonymous": false,
      "inputs": [
        {
          "indexed": true,
          "name": "_from",
          "type": "address"
        },
        {
          "indexed": true,
          "name": "_to",
          "type": "address"
        },
        {
          "indexed": false,
          "name": "_value",
          "type": "uint256"
        }
      ],
      "name": "Transfer",
      "type": "event"
    },
    {
      "anonymous": false,
      "inputs": [
        {
          "indexed": true,
          "name": "_owner",
          "type": "address"
        },
        {
          "indexed": true,
          "name": "_spender",
          "type": "address"
        },
        {
          "indexed": false,
          "name": "_value",
          "type": "uint256"
        }
      ],
      "name": "Approval",
      "type": "event"
    }
  ],
  "bytecode": "0x606060405260008055341561001357600080fd5b6040516080806110198339810160405280805191906020018051919060200180519190602001805160038054600160a060020a031916600160a060020a03979097169690961790955550506004919091556005805460ff191660ff909216919091179055600655610f90806100896000396000f300606060405236156100e05763ffffffff60e060020a6000350416630156b32381146100e557806302ab72c41461011b57806306fdde031461013c578063095ea7b314610161578063162790551461018357806318160ddd146101a257806323b872dd146101b5578063313ce567146101dd5780633f35d0331461020657806367fbd2891461026b57806370a082311461028157806395d89b41146102a057806397304ced146102b3578063a9059cbb146102c9578063acef6037146102eb578063be45fd621461030d578063dd62ed3e14610372578063f7f01b4b14610397575b600080fd5b34156100f057600080fd5b610107600435600160a060020a03602435166103c6565b604051901515815260200160405180910390f35b341561012657600080fd5b61013a600160a060020a03600435166104ca565b005b341561014757600080fd5b61014f61057b565b60405190815260200160405180910390f35b341561016c57600080fd5b610107600160a060020a0360043516602435610581565b341561018e57600080fd5b610107600160a060020a03600435166105ed565b34156101ad57600080fd5b61014f61060d565b34156101c057600080fd5b610107600160a060020a0360043581169060243516604435610613565b34156101e857600080fd5b6101f0610730565b60405160ff909116815260200160405180910390f35b341561021157600080fd5b61010760048035600160a060020a03169060248035919060649060443590810190830135806020601f8201819004810201604051908101604052818152929190602084018383808284375094965061073995505050505050565b341561027657600080fd5b6101076004356109aa565b341561028c57600080fd5b61014f600160a060020a0360043516610bee565b34156102ab57600080fd5b61014f610c09565b34156102be57600080fd5b61013a600435610c0f565b34156102d457600080fd5b610107600160a060020a0360043516602435610dba565b34156102f657600080fd5b610107600160a060020a0360043516602435610df5565b341561031857600080fd5b61010760048035600160a060020a03169060248035919060649060443590810190830135806020601f82018190048102016040519081016040528181529291906020840183838082843750949650610ebd95505050505050565b341561037d57600080fd5b61014f600160a060020a0360043581169060243516610ee9565b34156103a257600080fd5b6103aa610f14565b604051600160a060020a03909116815260200160405180910390f35b600354600090600160a060020a03166305fd22d033836040516020015260405160e060020a63ffffffff8416028152600160a060020a039091166004820152602401602060405180830381600087803b151561042157600080fd5b6102c65a03f1151561043257600080fd5b50505060405180511515600114905061044a57600080fd5b600160a060020a03821660009081526001602052604090205483901015610473575060006104c4565b600160a060020a0382166000908152600160205260409020546104969084610f23565b600160a060020a038316600090815260016020526040812091909155546104bd9084610f23565b6000555060015b92915050565b600354600160a060020a0316630c68ba213360006040516020015260405160e060020a63ffffffff8416028152600160a060020a039091166004820152602401602060405180830381600087803b151561052357600080fd5b6102c65a03f1151561053457600080fd5b50505060405180511515600114905061054c57600080fd5b6003805473ffffffffffffffffffffffffffffffffffffffff1916600160a060020a0392909216919091179055565b60045481565b600160a060020a03338116600081815260026020908152604080832094871680845294909152808220859055909291907f8c5be1e5ebec7d5bd14f71427d1e84f3dd0314c0f7b2291e5b200ac8c7c3b9259085905190815260200160405180910390a350600192915050565b6000813b818111156106025760019150610607565b600091505b50919050565b60005481565b600160a060020a0383166000908152600160205260408120548290108015906106635750600160a060020a0380851660009081526002602090815260408083203390941683529290522054829010155b801561066f5750600082115b80156106945750600160a060020a038316600090815260016020526040902054828101115b1561072557600160a060020a03808416600081815260016020908152604080832080548801905588851680845281842080548990039055600283528184203390961684529490915290819020805486900390559091907fddf252ad1be2c89b69c2b068fc378daa952ba7f163c4a11628f55a4df523b3ef9085905190815260200160405180910390a3506001610729565b5060005b9392505050565b60055460ff1681565b600160a060020a03331660009081526001602052604081205481908490108015906107645750600084115b80156107895750600160a060020a038516600090815260016020526040902054848101115b1561099d5750600160a060020a033381811660009081526001602052604080822080548890039055928716808252908390208054870190558692909163c0ee0b8a9187908790518463ffffffff1660e060020a0281526004018084600160a060020a0316600160a060020a0316815260200183815260200180602001828103825283818151815260200191508051906020019080838360005b8381101561083a578082015183820152602001610822565b50505050905090810190601f1680156108675780820380516001836020036101000a031916815260200191505b50945050505050600060405180830381600087803b151561088757600080fd5b6102c65a03f1151561089857600080fd5b50505084600160a060020a031633600160a060020a03167fddf252ad1be2c89b69c2b068fc378daa952ba7f163c4a11628f55a4df523b3ef8660405190815260200160405180910390a37fb35b712dc2c80945537903ca9aa7ed83607d14fc206a7e7ef41d5cf8946a3772858585604051600160a060020a03841681526020810183905260606040820181815290820183818151815260200191508051906020019080838360005b83811015610958578082015183820152602001610940565b50505050905090810190601f1680156109855780820380516001836020036101000a031916815260200191505b5094505050505060405180910390a1600191506109a2565b600091505b509392505050565b600354600090600160a060020a03166305fd22d033836040516020015260405160e060020a63ffffffff8416028152600160a060020a039091166004820152602401602060405180830381600087803b1515610a0557600080fd5b6102c65a03f11515610a1657600080fd5b505050604051805115156001149050610a2e57600080fd5b6003548290600190600090600160a060020a03166394a3760f82604051602001526040518163ffffffff1660e060020a028152600401602060405180830381600087803b1515610a7d57600080fd5b6102c65a03f11515610a8e57600080fd5b5050506040518051600160a060020a03168252506020810191909152604001600020541015610abf57506000610be9565b600354610b4a90600190600090600160a060020a03166394a3760f82604051602001526040518163ffffffff1660e060020a028152600401602060405180830381600087803b1515610b1057600080fd5b6102c65a03f11515610b2157600080fd5b5050506040518051600160a060020a031682525060208101919091526040016000205483610f23565b600354600190600090600160a060020a03166394a3760f82604051602001526040518163ffffffff1660e060020a028152600401602060405180830381600087803b1515610b9757600080fd5b6102c65a03f11515610ba857600080fd5b50505060405180519050600160a060020a0316600160a060020a0316815260200190815260200160002081905550610be260005483610f23565b6000555060015b919050565b600160a060020a031660009081526001602052604090205490565b60065481565b600354600160a060020a03166305fd22d03360006040516020015260405160e060020a63ffffffff8416028152600160a060020a039091166004820152602401602060405180830381600087803b1515610c6857600080fd5b6102c65a03f11515610c7957600080fd5b505050604051805115156001149050610c9157600080fd5b600354610d1c90600190600090600160a060020a03166394a3760f82604051602001526040518163ffffffff1660e060020a028152600401602060405180830381600087803b1515610ce257600080fd5b6102c65a03f11515610cf357600080fd5b5050506040518051600160a060020a031682525060208101919091526040016000205482610f35565b600354600190600090600160a060020a03166394a3760f82604051602001526040518163ffffffff1660e060020a028152600401602060405180830381600087803b1515610d6957600080fd5b6102c65a03f11515610d7a57600080fd5b50505060405180519050600160a060020a0316600160a060020a0316815260200190815260200160002081905550610db460005482610f35565b60005550565b6000610dc4610f52565b610dcd846105ed565b15610de457610ddd848483610739565b9150610dee565b610ddd8484610df5565b5092915050565b600160a060020a033316600090815260016020526040812054829010801590610e1e5750600082115b8015610e435750600160a060020a038316600090815260016020526040902054828101115b15610eb557600160a060020a033381166000818152600160205260408082208054879003905592861680825290839020805486019055917fddf252ad1be2c89b69c2b068fc378daa952ba7f163c4a11628f55a4df523b3ef9085905190815260200160405180910390a35060016104c4565b5060006104c4565b6000610ec8846105ed565b15610edf57610ed8848484610739565b9050610729565b610ed88484610df5565b600160a060020a03918216600090815260026020908152604080832093909416825291909152205490565b600354600160a060020a031681565b600082821115610f2f57fe5b50900390565b6000828201838110801590610f4a5750828110155b151561072957fe5b602060405190810160405260008152905600a165627a7a72305820dbe619d8cc93ce6663d57a57816aa5e650a778caff3854434e02cacdcde816a10029",
  "source": "pragma solidity ^0.4.17;\n\nimport \"./ERC23Token.sol\";\nimport \"./SafeMath.sol\";\nimport \"./withAccessManager.sol\";\n\n\n/// @title CurrencyToken contract\ncontract CurrencyToken is ERC23Token, withAccessManager {\n\n    // FIELDS\n\n    bytes32 public name;// token name, e.g, pounds for fiat UK pounds.\n    uint8 public decimals;// How many decimals to show. ie. There could 1000 base units with 3 decimals. Meaning 0.980 SBX = 980 base units. It's like comparing 1 wei to 1 ether.\n    bytes32 public symbol;// An identifier: eg SBX.\n\n\n    // NON-CONSTANT METHODS\n    \n    /** @dev Creates a new currency/token.\n      * @param _accessManager The accessManage contract address.\n      * @param _decimalUnits The decimal units/places the token can have.\n      * @param _tokenSymbol The token's symbol, e.g., GBP.\n      * @return p The calculated perimeter.\n      */\n    function CurrencyToken (\n        address _accessManager,\n        bytes32 _tokenName,\n        uint8 _decimalUnits,\n        bytes32 _tokenSymbol)\n        public\n        withAccessManager(_accessManager)\n    {\n        name = _tokenName; // Set the name for display purposes\n        decimals = _decimalUnits; // Amount of decimals for display purposes\n        symbol = _tokenSymbol; // Set the symbol for display purposes\n    }\n\n    /** @dev Mints/Generates a specified amount of tokens \n      * @dev The method uses a modifier from withAccessManager contract to only permit populous to use it.\n      * @dev The method uses SafeMath to carry out safe additions.\n      * @param amount The amount of tokens to create.\n      */\n    function mintTokens(uint amount) public onlyPopulous {\n        balances[AM.populous()] = SafeMath.safeAdd(balances[AM.populous()], amount);\n        totalSupply = SafeMath.safeAdd(totalSupply, amount);\n    }\n\n    //Note.. Need to emit event, Pokens destroyed... from system\n    /** @dev Destroys a specified amount of tokens \n      * @dev The method uses a modifier from withAccessManager contract to only permit populous to use it.\n      * @dev The method uses SafeMath to carry out safe token deductions/subtraction.\n      * @param amount The amount of tokens to create.\n      */\n    function destroyTokens(uint amount) public onlyPopulous returns (bool success) {\n        if (balances[AM.populous()] < amount) {\n            return false;\n        } else {\n            balances[AM.populous()] = SafeMath.safeSub(balances[AM.populous()], amount);\n            totalSupply = SafeMath.safeSub(totalSupply, amount);\n            return true;\n        }\n    }\n\n     \n      /** @dev Destroys a specified amount of tokens, from a user.\n      * @dev The method uses a modifier from withAccessManager contract to only permit populous to use it.\n      * @dev The method uses SafeMath to carry out safe token deductions/subtraction.\n      * @param amount The amount of tokens to create.\n      */\n    function destroyTokensFrom(uint amount, address from) public onlyPopulous returns (bool success) {\n        if (balances[from] < amount) {\n            return false;\n        } else {\n            balances[from] = SafeMath.safeSub(balances[from], amount);\n            totalSupply = SafeMath.safeSub(totalSupply, amount);\n            return true;\n        }\n    }\n}",
  "sourcePath": "/Users/najienka/Desktop/populous-smartcontracts/contracts/CurrencyToken.sol",
  "schemaVersion": "1.0.0",
  "updatedAt": "2018-01-30T18:29:02.986Z"
}