{
  "contractName": "CurrencyToken",
  "abi": [
    {
      "constant": false,
      "inputs": [
        {
          "name": "amount",
          "type": "uint256"
        },
        {
          "name": "from",
          "type": "address"
        }
      ],
      "name": "destroyTokensFrom",
      "outputs": [
        {
          "name": "success",
          "type": "bool"
        }
      ],
      "payable": false,
      "stateMutability": "nonpayable",
      "type": "function"
    },
    {
      "constant": false,
      "inputs": [
        {
          "name": "_accessManager",
          "type": "address"
        }
      ],
      "name": "updateAccessManager",
      "outputs": [],
      "payable": false,
      "stateMutability": "nonpayable",
      "type": "function"
    },
    {
      "constant": true,
      "inputs": [],
      "name": "name",
      "outputs": [
        {
          "name": "",
          "type": "bytes32"
        }
      ],
      "payable": false,
      "stateMutability": "view",
      "type": "function"
    },
    {
      "constant": false,
      "inputs": [
        {
          "name": "_spender",
          "type": "address"
        },
        {
          "name": "_value",
          "type": "uint256"
        }
      ],
      "name": "approve",
      "outputs": [
        {
          "name": "success",
          "type": "bool"
        }
      ],
      "payable": false,
      "stateMutability": "nonpayable",
      "type": "function"
    },
    {
      "constant": true,
      "inputs": [],
      "name": "totalSupply",
      "outputs": [
        {
          "name": "",
          "type": "uint256"
        }
      ],
      "payable": false,
      "stateMutability": "view",
      "type": "function"
    },
    {
      "constant": false,
      "inputs": [
        {
          "name": "_from",
          "type": "address"
        },
        {
          "name": "_to",
          "type": "address"
        },
        {
          "name": "_value",
          "type": "uint256"
        }
      ],
      "name": "transferFrom",
      "outputs": [
        {
          "name": "success",
          "type": "bool"
        }
      ],
      "payable": false,
      "stateMutability": "nonpayable",
      "type": "function"
    },
    {
      "constant": true,
      "inputs": [
        {
          "name": "",
          "type": "address"
        }
      ],
      "name": "balances",
      "outputs": [
        {
          "name": "",
          "type": "uint256"
        }
      ],
      "payable": false,
      "stateMutability": "view",
      "type": "function"
    },
    {
      "constant": true,
      "inputs": [],
      "name": "decimals",
      "outputs": [
        {
          "name": "",
          "type": "uint8"
        }
      ],
      "payable": false,
      "stateMutability": "view",
      "type": "function"
    },
    {
      "constant": true,
      "inputs": [
        {
          "name": "",
          "type": "address"
        },
        {
          "name": "",
          "type": "address"
        }
      ],
      "name": "allowed",
      "outputs": [
        {
          "name": "",
          "type": "uint256"
        }
      ],
      "payable": false,
      "stateMutability": "view",
      "type": "function"
    },
    {
      "constant": false,
      "inputs": [
        {
          "name": "amount",
          "type": "uint256"
        }
      ],
      "name": "destroyTokens",
      "outputs": [
        {
          "name": "success",
          "type": "bool"
        }
      ],
      "payable": false,
      "stateMutability": "nonpayable",
      "type": "function"
    },
    {
      "constant": true,
      "inputs": [
        {
          "name": "_owner",
          "type": "address"
        }
      ],
      "name": "balanceOf",
      "outputs": [
        {
          "name": "balance",
          "type": "uint256"
        }
      ],
      "payable": false,
      "stateMutability": "view",
      "type": "function"
    },
    {
      "constant": true,
      "inputs": [],
      "name": "symbol",
      "outputs": [
        {
          "name": "",
          "type": "bytes32"
        }
      ],
      "payable": false,
      "stateMutability": "view",
      "type": "function"
    },
    {
      "constant": false,
      "inputs": [
        {
          "name": "amount",
          "type": "uint256"
        }
      ],
      "name": "mintTokens",
      "outputs": [],
      "payable": false,
      "stateMutability": "nonpayable",
      "type": "function"
    },
    {
      "constant": false,
      "inputs": [
        {
          "name": "_to",
          "type": "address"
        },
        {
          "name": "_value",
          "type": "uint256"
        }
      ],
      "name": "transfer",
      "outputs": [
        {
          "name": "success",
          "type": "bool"
        }
      ],
      "payable": false,
      "stateMutability": "nonpayable",
      "type": "function"
    },
    {
      "constant": true,
      "inputs": [
        {
          "name": "_owner",
          "type": "address"
        },
        {
          "name": "_spender",
          "type": "address"
        }
      ],
      "name": "allowance",
      "outputs": [
        {
          "name": "remaining",
          "type": "uint256"
        }
      ],
      "payable": false,
      "stateMutability": "view",
      "type": "function"
    },
    {
      "constant": true,
      "inputs": [],
      "name": "AM",
      "outputs": [
        {
          "name": "",
          "type": "address"
        }
      ],
      "payable": false,
      "stateMutability": "view",
      "type": "function"
    },
    {
      "inputs": [
        {
          "name": "_accessManager",
          "type": "address"
        },
        {
          "name": "_tokenName",
          "type": "bytes32"
        },
        {
          "name": "_decimalUnits",
          "type": "uint8"
        },
        {
          "name": "_tokenSymbol",
          "type": "bytes32"
        }
      ],
      "payable": false,
      "stateMutability": "nonpayable",
      "type": "constructor"
    },
    {
      "anonymous": false,
      "inputs": [
        {
          "indexed": true,
          "name": "_from",
          "type": "address"
        },
        {
          "indexed": true,
          "name": "_to",
          "type": "address"
        },
        {
          "indexed": false,
          "name": "_value",
          "type": "uint256"
        }
      ],
      "name": "Transfer",
      "type": "event"
    },
    {
      "anonymous": false,
      "inputs": [
        {
          "indexed": true,
          "name": "_owner",
          "type": "address"
        },
        {
          "indexed": true,
          "name": "_spender",
          "type": "address"
        },
        {
          "indexed": false,
          "name": "_value",
          "type": "uint256"
        }
      ],
      "name": "Approval",
      "type": "event"
    }
  ],
  "bytecode": "0x606060405260008055341561001357600080fd5b604051608080610c1d8339810160405280805191906020018051919060200180519190602001805160068054600160a060020a031916600160a060020a03979097169690961790955550506001919091556002805460ff191660ff909216919091179055600355610b94806100896000396000f300606060405236156100ca5763ffffffff60e060020a6000350416630156b32381146100cf57806302ab72c41461010557806306fdde0314610126578063095ea7b31461014b57806318160ddd1461016d57806323b872dd1461018057806327e235e3146101a8578063313ce567146101c75780635c658165146101f057806367fbd2891461021557806370a082311461022b57806395d89b411461024a57806397304ced1461025d578063a9059cbb14610273578063dd62ed3e14610295578063f7f01b4b146102ba575b600080fd5b34156100da57600080fd5b6100f1600435600160a060020a03602435166102e9565b604051901515815260200160405180910390f35b341561011057600080fd5b610124600160a060020a03600435166103ed565b005b341561013157600080fd5b61013961049e565b60405190815260200160405180910390f35b341561015657600080fd5b6100f1600160a060020a03600435166024356104a4565b341561017857600080fd5b610139610510565b341561018b57600080fd5b6100f1600160a060020a0360043581169060243516604435610516565b34156101b357600080fd5b610139600160a060020a036004351661061c565b34156101d257600080fd5b6101da61062e565b60405160ff909116815260200160405180910390f35b34156101fb57600080fd5b610139600160a060020a0360043581169060243516610637565b341561022057600080fd5b6100f1600435610654565b341561023657600080fd5b610139600160a060020a0360043516610898565b341561025557600080fd5b6101396108b3565b341561026857600080fd5b6101246004356108b9565b341561027e57600080fd5b6100f1600160a060020a0360043516602435610a64565b34156102a057600080fd5b610139600160a060020a0360043581169060243516610af8565b34156102c557600080fd5b6102cd610b23565b604051600160a060020a03909116815260200160405180910390f35b600654600090600160a060020a03166305fd22d033836040516020015260405160e060020a63ffffffff8416028152600160a060020a039091166004820152602401602060405180830381600087803b151561034457600080fd5b6102c65a03f1151561035557600080fd5b50505060405180511515600114905061036d57600080fd5b600160a060020a03821660009081526004602052604090205483901015610396575060006103e7565b600160a060020a0382166000908152600460205260409020546103b99084610b32565b600160a060020a038316600090815260046020526040812091909155546103e09084610b32565b6000555060015b92915050565b600654600160a060020a0316630c68ba213360006040516020015260405160e060020a63ffffffff8416028152600160a060020a039091166004820152602401602060405180830381600087803b151561044657600080fd5b6102c65a03f1151561045757600080fd5b50505060405180511515600114905061046f57600080fd5b6006805473ffffffffffffffffffffffffffffffffffffffff1916600160a060020a0392909216919091179055565b60015481565b600160a060020a03338116600081815260056020908152604080832094871680845294909152808220859055909291907f8c5be1e5ebec7d5bd14f71427d1e84f3dd0314c0f7b2291e5b200ac8c7c3b9259085905190815260200160405180910390a350600192915050565b60005481565b600160a060020a03808416600081815260056020908152604080832033909516835293815283822054928252600490529182205483901080159061055a5750828110155b151561056557600080fd5b600160a060020a03808516600090815260046020526040808220805487019055918716815220805484900390556000198110156105ca57600160a060020a03808616600090815260056020908152604080832033909416835292905220805484900390555b83600160a060020a031685600160a060020a03167fddf252ad1be2c89b69c2b068fc378daa952ba7f163c4a11628f55a4df523b3ef8560405190815260200160405180910390a3506001949350505050565b60046020526000908152604090205481565b60025460ff1681565b600560209081526000928352604080842090915290825290205481565b600654600090600160a060020a03166305fd22d033836040516020015260405160e060020a63ffffffff8416028152600160a060020a039091166004820152602401602060405180830381600087803b15156106af57600080fd5b6102c65a03f115156106c057600080fd5b5050506040518051151560011490506106d857600080fd5b6006548290600490600090600160a060020a03166394a3760f82604051602001526040518163ffffffff1660e060020a028152600401602060405180830381600087803b151561072757600080fd5b6102c65a03f1151561073857600080fd5b5050506040518051600160a060020a0316825250602081019190915260400160002054101561076957506000610893565b6006546107f490600490600090600160a060020a03166394a3760f82604051602001526040518163ffffffff1660e060020a028152600401602060405180830381600087803b15156107ba57600080fd5b6102c65a03f115156107cb57600080fd5b5050506040518051600160a060020a031682525060208101919091526040016000205483610b32565b600654600490600090600160a060020a03166394a3760f82604051602001526040518163ffffffff1660e060020a028152600401602060405180830381600087803b151561084157600080fd5b6102c65a03f1151561085257600080fd5b50505060405180519050600160a060020a0316600160a060020a031681526020019081526020016000208190555061088c60005483610b32565b6000555060015b919050565b600160a060020a031660009081526004602052604090205490565b60035481565b600654600160a060020a03166305fd22d03360006040516020015260405160e060020a63ffffffff8416028152600160a060020a039091166004820152602401602060405180830381600087803b151561091257600080fd5b6102c65a03f1151561092357600080fd5b50505060405180511515600114905061093b57600080fd5b6006546109c690600490600090600160a060020a03166394a3760f82604051602001526040518163ffffffff1660e060020a028152600401602060405180830381600087803b151561098c57600080fd5b6102c65a03f1151561099d57600080fd5b5050506040518051600160a060020a031682525060208101919091526040016000205482610b44565b600654600490600090600160a060020a03166394a3760f82604051602001526040518163ffffffff1660e060020a028152600401602060405180830381600087803b1515610a1357600080fd5b6102c65a03f11515610a2457600080fd5b50505060405180519050600160a060020a0316600160a060020a0316815260200190815260200160002081905550610a5e60005482610b44565b60005550565b600160a060020a03331660009081526004602052604081205482901015610a8a57600080fd5b600160a060020a033381166000818152600460205260408082208054879003905592861680825290839020805486019055917fddf252ad1be2c89b69c2b068fc378daa952ba7f163c4a11628f55a4df523b3ef9085905190815260200160405180910390a350600192915050565b600160a060020a03918216600090815260056020908152604080832093909416825291909152205490565b600654600160a060020a031681565b600082821115610b3e57fe5b50900390565b6000828201838110801590610b595750828110155b1515610b6157fe5b93925050505600a165627a7a7230582018471606d8a79e555d57dc6bec1ad7e9c307839215b0bd9d2e447718fbc0a5340029",
  "source": "pragma solidity ^0.4.17;\n\nimport \"./ERC20Token.sol\";\nimport \"./SafeMath.sol\";\nimport \"./withAccessManager.sol\";\n\n\n/// @title CurrencyToken contract\ncontract CurrencyToken is ERC20Token, withAccessManager {\n\n    // NON-CONSTANT METHODS\n    \n    /** @dev Creates a new currency/token.\n      * @param _accessManager The accessManage contract address.\n      * @param _decimalUnits The decimal units/places the token can have.\n      * @param _tokenSymbol The token's symbol, e.g., GBP.\n      * @return p The calculated perimeter.\n      */\n    function CurrencyToken (\n        address _accessManager,\n        bytes32 _tokenName,\n        uint8 _decimalUnits,\n        bytes32 _tokenSymbol)\n        public\n        withAccessManager(_accessManager)\n    {\n        name = _tokenName; // Set the name for display purposes\n        decimals = _decimalUnits; // Amount of decimals for display purposes\n        symbol = _tokenSymbol; // Set the symbol for display purposes\n    }\n\n    /** @dev Mints/Generates a specified amount of tokens \n      * @dev The method uses a modifier from withAccessManager contract to only permit populous to use it.\n      * @dev The method uses SafeMath to carry out safe additions.\n      * @param amount The amount of tokens to create.\n      */\n    function mintTokens(uint amount) public onlyPopulous {\n        balances[AM.populous()] = SafeMath.safeAdd(balances[AM.populous()], amount);\n        totalSupply = SafeMath.safeAdd(totalSupply, amount);\n    }\n\n    //Note.. Need to emit event, Pokens destroyed... from system\n    /** @dev Destroys a specified amount of tokens \n      * @dev The method uses a modifier from withAccessManager contract to only permit populous to use it.\n      * @dev The method uses SafeMath to carry out safe token deductions/subtraction.\n      * @param amount The amount of tokens to create.\n      */\n    function destroyTokens(uint amount) public onlyPopulous returns (bool success) {\n        if (balances[AM.populous()] < amount) {\n            return false;\n        } else {\n            balances[AM.populous()] = SafeMath.safeSub(balances[AM.populous()], amount);\n            totalSupply = SafeMath.safeSub(totalSupply, amount);\n            return true;\n        }\n    }\n\n     \n      /** @dev Destroys a specified amount of tokens, from a user.\n      * @dev The method uses a modifier from withAccessManager contract to only permit populous to use it.\n      * @dev The method uses SafeMath to carry out safe token deductions/subtraction.\n      * @param amount The amount of tokens to create.\n      */\n    function destroyTokensFrom(uint amount, address from) public onlyPopulous returns (bool success) {\n        if (balances[from] < amount) {\n            return false;\n        } else {\n            balances[from] = SafeMath.safeSub(balances[from], amount);\n            totalSupply = SafeMath.safeSub(totalSupply, amount);\n            return true;\n        }\n    }\n}",
  "sourcePath": "/Users/najienka/Desktop/populous-smartcontracts/contracts/CurrencyToken.sol",
  "schemaVersion": "1.0.0",
  "updatedAt": "2018-01-31T09:56:48.483Z"
}