{
  "contractName": "Populous",
  "abi": [
    {
      "constant": false,
      "inputs": [
        {
          "name": "crowdsaleAddr",
          "type": "address"
        }
      ],
      "name": "fundBeneficiary",
      "outputs": [],
      "payable": false,
      "stateMutability": "nonpayable",
      "type": "function"
    },
    {
      "constant": false,
      "inputs": [
        {
          "name": "_accessManager",
          "type": "address"
        }
      ],
      "name": "updateAccessManager",
      "outputs": [],
      "payable": false,
      "stateMutability": "nonpayable",
      "type": "function"
    },
    {
      "constant": false,
      "inputs": [
        {
          "name": "crowdsaleAddr",
          "type": "address"
        }
      ],
      "name": "fundWinnerGroup",
      "outputs": [],
      "payable": false,
      "stateMutability": "nonpayable",
      "type": "function"
    },
    {
      "constant": true,
      "inputs": [],
      "name": "DCM",
      "outputs": [
        {
          "name": "",
          "type": "address"
        }
      ],
      "payable": false,
      "stateMutability": "view",
      "type": "function"
    },
    {
      "constant": false,
      "inputs": [
        {
          "name": "_depositContractsManager",
          "type": "address"
        }
      ],
      "name": "setDCM",
      "outputs": [],
      "payable": false,
      "stateMutability": "nonpayable",
      "type": "function"
    },
    {
      "constant": false,
      "inputs": [
        {
          "name": "crowdsaleAddr",
          "type": "address"
        },
        {
          "name": "bidderIndex",
          "type": "uint256"
        }
      ],
      "name": "fundWinnerGroupBidder",
      "outputs": [],
      "payable": false,
      "stateMutability": "nonpayable",
      "type": "function"
    },
    {
      "constant": false,
      "inputs": [
        {
          "name": "crowdsaleAddr",
          "type": "address"
        },
        {
          "name": "groupName",
          "type": "string"
        },
        {
          "name": "goal",
          "type": "uint256"
        },
        {
          "name": "bidderId",
          "type": "bytes32"
        },
        {
          "name": "name",
          "type": "string"
        },
        {
          "name": "value",
          "type": "uint256"
        }
      ],
      "name": "initialBid",
      "outputs": [
        {
          "name": "success",
          "type": "bool"
        }
      ],
      "payable": false,
      "stateMutability": "nonpayable",
      "type": "function"
    },
    {
      "constant": false,
      "inputs": [
        {
          "name": "crowdsaleAddr",
          "type": "address"
        }
      ],
      "name": "refundLosingGroups",
      "outputs": [],
      "payable": false,
      "stateMutability": "nonpayable",
      "type": "function"
    },
    {
      "constant": false,
      "inputs": [
        {
          "name": "_currencySymbol",
          "type": "bytes32"
        },
        {
          "name": "_borrowerId",
          "type": "bytes32"
        },
        {
          "name": "_invoiceId",
          "type": "bytes32"
        },
        {
          "name": "_invoiceNumber",
          "type": "string"
        },
        {
          "name": "_invoiceAmount",
          "type": "uint256"
        },
        {
          "name": "_fundingGoal",
          "type": "uint256"
        },
        {
          "name": "_platformTaxPercent",
          "type": "uint256"
        },
        {
          "name": "_signedDocumentIPFSHash",
          "type": "string"
        },
        {
          "name": "_extraTime",
          "type": "uint256"
        }
      ],
      "name": "createCrowdsale",
      "outputs": [],
      "payable": false,
      "stateMutability": "nonpayable",
      "type": "function"
    },
    {
      "constant": false,
      "inputs": [
        {
          "name": "_crowdsaleManager",
          "type": "address"
        }
      ],
      "name": "setCM",
      "outputs": [],
      "payable": false,
      "stateMutability": "nonpayable",
      "type": "function"
    },
    {
      "constant": true,
      "inputs": [
        {
          "name": "currency",
          "type": "address"
        }
      ],
      "name": "getCurrencySymbol",
      "outputs": [
        {
          "name": "",
          "type": "bytes32"
        }
      ],
      "payable": false,
      "stateMutability": "view",
      "type": "function"
    },
    {
      "constant": false,
      "inputs": [
        {
          "name": "currency",
          "type": "bytes32"
        },
        {
          "name": "from",
          "type": "bytes32"
        },
        {
          "name": "to",
          "type": "bytes32"
        },
        {
          "name": "amount",
          "type": "uint256"
        }
      ],
      "name": "transfer",
      "outputs": [],
      "payable": false,
      "stateMutability": "nonpayable",
      "type": "function"
    },
    {
      "constant": true,
      "inputs": [
        {
          "name": "currency",
          "type": "bytes32"
        },
        {
          "name": "accountId",
          "type": "bytes32"
        }
      ],
      "name": "getLedgerEntry",
      "outputs": [
        {
          "name": "",
          "type": "uint256"
        }
      ],
      "payable": false,
      "stateMutability": "view",
      "type": "function"
    },
    {
      "constant": false,
      "inputs": [
        {
          "name": "_tokenName",
          "type": "bytes32"
        },
        {
          "name": "_decimalUnits",
          "type": "uint8"
        },
        {
          "name": "_tokenSymbol",
          "type": "bytes32"
        }
      ],
      "name": "createCurrency",
      "outputs": [],
      "payable": false,
      "stateMutability": "nonpayable",
      "type": "function"
    },
    {
      "constant": false,
      "inputs": [
        {
          "name": "crowdsaleAddr",
          "type": "address"
        },
        {
          "name": "groupIndex",
          "type": "uint256"
        },
        {
          "name": "bidderIndex",
          "type": "uint256"
        }
      ],
      "name": "refundLosingGroupBidder",
      "outputs": [],
      "payable": false,
      "stateMutability": "nonpayable",
      "type": "function"
    },
    {
      "constant": false,
      "inputs": [
        {
          "name": "clientId",
          "type": "bytes32"
        },
        {
          "name": "populousTokenContract",
          "type": "address"
        },
        {
          "name": "receiveCurrency",
          "type": "bytes32"
        },
        {
          "name": "depositAmount",
          "type": "uint256"
        },
        {
          "name": "receiveAmount",
          "type": "uint256"
        }
      ],
      "name": "deposit",
      "outputs": [
        {
          "name": "",
          "type": "bool"
        }
      ],
      "payable": false,
      "stateMutability": "nonpayable",
      "type": "function"
    },
    {
      "constant": false,
      "inputs": [
        {
          "name": "clientId",
          "type": "bytes32"
        }
      ],
      "name": "createDepositContract",
      "outputs": [],
      "payable": false,
      "stateMutability": "nonpayable",
      "type": "function"
    },
    {
      "constant": false,
      "inputs": [
        {
          "name": "crowdsaleAddr",
          "type": "address"
        },
        {
          "name": "paidAmount",
          "type": "uint256"
        }
      ],
      "name": "invoicePaymentReceived",
      "outputs": [],
      "payable": false,
      "stateMutability": "nonpayable",
      "type": "function"
    },
    {
      "constant": false,
      "inputs": [
        {
          "name": "currency",
          "type": "bytes32"
        },
        {
          "name": "amount",
          "type": "uint256"
        }
      ],
      "name": "mintTokens",
      "outputs": [
        {
          "name": "success",
          "type": "bool"
        }
      ],
      "payable": false,
      "stateMutability": "nonpayable",
      "type": "function"
    },
    {
      "constant": false,
      "inputs": [
        {
          "name": "from",
          "type": "address"
        },
        {
          "name": "amount",
          "type": "uint256"
        },
        {
          "name": "data",
          "type": "bytes"
        }
      ],
      "name": "tokenFallback",
      "outputs": [],
      "payable": false,
      "stateMutability": "nonpayable",
      "type": "function"
    },
    {
      "constant": true,
      "inputs": [],
      "name": "CM",
      "outputs": [
        {
          "name": "",
          "type": "address"
        }
      ],
      "payable": false,
      "stateMutability": "view",
      "type": "function"
    },
    {
      "constant": false,
      "inputs": [
        {
          "name": "crowdsaleAddr",
          "type": "address"
        },
        {
          "name": "groupIndex",
          "type": "uint256"
        },
        {
          "name": "bidderId",
          "type": "bytes32"
        },
        {
          "name": "name",
          "type": "string"
        },
        {
          "name": "value",
          "type": "uint256"
        }
      ],
      "name": "bid",
      "outputs": [
        {
          "name": "success",
          "type": "bool"
        }
      ],
      "payable": false,
      "stateMutability": "nonpayable",
      "type": "function"
    },
    {
      "constant": false,
      "inputs": [
        {
          "name": "clientId",
          "type": "bytes32"
        },
        {
          "name": "populousTokenContract",
          "type": "address"
        },
        {
          "name": "releaseCurrency",
          "type": "bytes32"
        },
        {
          "name": "receiver",
          "type": "address"
        },
        {
          "name": "depositIndex",
          "type": "uint256"
        }
      ],
      "name": "releaseDeposit",
      "outputs": [
        {
          "name": "",
          "type": "bool"
        }
      ],
      "payable": false,
      "stateMutability": "nonpayable",
      "type": "function"
    },
    {
      "constant": true,
      "inputs": [
        {
          "name": "currency",
          "type": "bytes32"
        }
      ],
      "name": "getCurrency",
      "outputs": [
        {
          "name": "",
          "type": "address"
        }
      ],
      "payable": false,
      "stateMutability": "view",
      "type": "function"
    },
    {
      "constant": false,
      "inputs": [
        {
          "name": "currency",
          "type": "bytes32"
        },
        {
          "name": "amount",
          "type": "uint256"
        }
      ],
      "name": "destroyTokens",
      "outputs": [
        {
          "name": "success",
          "type": "bool"
        }
      ],
      "payable": false,
      "stateMutability": "nonpayable",
      "type": "function"
    },
    {
      "constant": false,
      "inputs": [
        {
          "name": "currency",
          "type": "bytes32"
        },
        {
          "name": "from",
          "type": "address"
        },
        {
          "name": "accountId",
          "type": "bytes32"
        },
        {
          "name": "amount",
          "type": "uint256"
        }
      ],
      "name": "importExternalPokens",
      "outputs": [],
      "payable": false,
      "stateMutability": "nonpayable",
      "type": "function"
    },
    {
      "constant": false,
      "inputs": [
        {
          "name": "clientExternal",
          "type": "address"
        },
        {
          "name": "clientId",
          "type": "bytes32"
        },
        {
          "name": "currency",
          "type": "bytes32"
        },
        {
          "name": "amount",
          "type": "uint256"
        }
      ],
      "name": "withdraw",
      "outputs": [
        {
          "name": "",
          "type": "address"
        }
      ],
      "payable": false,
      "stateMutability": "nonpayable",
      "type": "function"
    },
    {
      "inputs": [
        {
          "name": "_accessManager",
          "type": "address"
        }
      ],
      "payable": false,
      "stateMutability": "view",
      "type": "function",
      "constant": true,
      "name": "AM",
      "outputs": [
        {
          "name": "",
          "type": "address"
        }
      ]
    },
    {
      "anonymous": false,
      "inputs": [
        {
          "indexed": false,
          "name": "_accessManager",
          "type": "address"
        },
        {
          "indexed": false,
          "name": "decimalUnits",
          "type": "uint8"
        },
        {
          "indexed": false,
          "name": "tokenSymbol",
          "type": "bytes32"
        },
        {
          "indexed": false,
          "name": "addr",
          "type": "address"
        }
      ],
      "name": "EventNewCurrency",
      "type": "constructor",
      "payable": false,
      "stateMutability": "nonpayable"
    },
    {
      "anonymous": false,
      "inputs": [
        {
          "indexed": false,
          "name": "tokenName",
          "type": "bytes32"
        },
        {
          "indexed": false,
          "name": "decimalUnits",
          "type": "uint8"
        },
        {
          "indexed": false,
          "name": "tokenSymbol",
          "type": "bytes32"
        },
        {
          "indexed": false,
          "name": "addr",
          "type": "address"
        }
      ],
      "name": "EventNewCurrency",
      "type": "event"
    },
    {
      "anonymous": false,
      "inputs": [
        {
          "indexed": false,
          "name": "currency",
          "type": "bytes32"
        },
        {
          "indexed": false,
          "name": "amount",
          "type": "uint256"
        }
      ],
      "name": "EventMintTokens",
      "type": "event"
    },
    {
      "anonymous": false,
      "inputs": [
        {
          "indexed": false,
          "name": "currency",
          "type": "bytes32"
        },
        {
          "indexed": false,
          "name": "amount",
          "type": "uint256"
        },
        {
          "indexed": false,
          "name": "toId",
          "type": "bytes32"
        },
        {
          "indexed": false,
          "name": "amount",
          "type": "uint256"
        }
      ],
      "name": "EventDestroyTokens",
      "type": "event"
    },
    {
      "anonymous": false,
      "inputs": [
        {
          "indexed": false,
          "name": "currency",
          "type": "bytes32"
        },
        {
          "indexed": false,
          "name": "fromId",
          "type": "bytes32"
        },
        {
          "indexed": false,
          "name": "toId",
          "type": "bytes32"
        },
        {
          "indexed": false,
          "name": "amount",
          "type": "uint256"
        }
      ],
      "name": "EventInternalTransfer",
      "type": "event"
    },
    {
      "anonymous": false,
      "inputs": [
        {
          "indexed": false,
          "name": "to",
          "type": "address"
        },
        {
          "indexed": false,
          "name": "clientId",
          "type": "bytes32"
        },
        {
          "indexed": false,
          "name": "currency",
          "type": "bytes32"
        },
        {
          "indexed": false,
          "name": "amount",
          "type": "uint256"
        }
      ],
      "name": "EventWithdrawal",
      "type": "event"
    },
    {
      "anonymous": false,
      "inputs": [
        {
          "indexed": false,
          "name": "from",
          "type": "address"
        },
        {
          "indexed": false,
          "name": "clientId",
          "type": "bytes32"
        },
        {
          "indexed": false,
          "name": "currency",
          "type": "bytes32"
        },
        {
          "indexed": false,
          "name": "amount",
          "type": "uint256"
        },
        {
          "indexed": false,
          "name": "_invoiceNumber",
          "type": "string"
        },
        {
          "indexed": false,
          "name": "_invoiceAmount",
          "type": "uint256"
        },
        {
          "indexed": false,
          "name": "_fundingGoal",
          "type": "uint256"
        },
        {
          "indexed": false,
          "name": "deadline",
          "type": "uint256"
        }
      ],
      "name": "EventDeposit",
      "type": "event"
    },
    {
      "anonymous": false,
      "inputs": [
        {
          "indexed": false,
          "name": "from",
          "type": "address"
        },
        {
          "indexed": false,
          "name": "clientId",
          "type": "bytes32"
        },
        {
          "indexed": false,
          "name": "currency",
          "type": "bytes32"
        },
        {
          "indexed": false,
          "name": "amount",
          "type": "uint256"
        }
      ],
      "name": "EventImportedPokens",
      "type": "event"
    },
    {
      "anonymous": false,
      "inputs": [
        {
          "indexed": false,
          "name": "crowdsale",
          "type": "address"
        },
        {
          "indexed": false,
          "name": "_currencySymbol",
          "type": "bytes32"
        },
        {
          "indexed": false,
          "name": "_borrowerId",
          "type": "bytes32"
        },
        {
          "indexed": false,
          "name": "_invoiceId",
          "type": "bytes32"
        },
        {
          "indexed": false,
          "name": "_invoiceNumber",
          "type": "string"
        },
        {
          "indexed": false,
          "name": "_invoiceAmount",
          "type": "uint256"
        },
        {
          "indexed": false,
          "name": "_fundingGoal",
          "type": "uint256"
        },
        {
          "indexed": false,
          "name": "deadline",
          "type": "uint256"
        }
      ],
      "name": "EventNewCrowdsale",
      "type": "event"
    },
    {
      "anonymous": false,
      "inputs": [
        {
          "indexed": false,
          "name": "crowdsaleAddr",
          "type": "address"
        },
        {
          "indexed": false,
          "name": "borrowerId",
          "type": "bytes32"
        },
        {
          "indexed": false,
          "name": "currency",
          "type": "bytes32"
        },
        {
          "indexed": false,
          "name": "amount",
          "type": "uint256"
        }
      ],
      "name": "EventBeneficiaryFunded",
      "type": "event"
    },
    {
      "anonymous": false,
      "inputs": [
        {
          "indexed": false,
          "name": "crowdsaleAddr",
          "type": "address"
        },
        {
          "indexed": false,
          "name": "groupIndex",
          "type": "uint256"
        },
        {
          "indexed": false,
          "name": "bidderId",
          "type": "bytes32"
        },
        {
          "indexed": false,
          "name": "currency",
          "type": "bytes32"
        },
        {
          "indexed": false,
          "name": "amount",
          "type": "uint256"
        },
        {
          "indexed": false,
          "name": "benefitsAmount",
          "type": "uint256"
        }
      ],
      "name": "EventLosingGroupBidderRefunded",
      "type": "event"
    },
    {
      "anonymous": false,
      "inputs": [
        {
          "indexed": false,
          "name": "crowdsaleAddr",
          "type": "address"
        },
        {
          "indexed": false,
          "name": "currency",
          "type": "bytes32"
        },
        {
          "indexed": false,
          "name": "amount",
          "type": "uint256"
        }
      ],
      "name": "EventPaymentReceived",
      "type": "event"
    },
    {
      "anonymous": false,
      "inputs": [
        {
          "indexed": false,
          "name": "crowdsaleAddr",
          "type": "address"
        },
        {
          "indexed": false,
          "name": "groupIndex",
          "type": "uint256"
        },
        {
          "indexed": false,
          "name": "bidderId",
          "type": "bytes32"
        },
        {
          "indexed": false,
          "name": "currency",
          "type": "bytes32"
        },
        {
          "indexed": false,
          "name": "bidAmount",
          "type": "uint256"
        },
        {
          "indexed": false,
          "name": "benefitsAmount",
          "type": "uint256"
        }
      ],
      "name": "EventWinnerGroupBidderFunded",
      "type": "event"
    },
    {
      "anonymous": false,
      "inputs": [
        {
          "indexed": false,
          "name": "clientId",
          "type": "bytes32"
        },
        {
          "indexed": false,
          "name": "depositContractAddress",
          "type": "address"
        },
        {
          "indexed": false,
          "name": "releaseCurrency",
          "type": "bytes32"
        },
        {
          "indexed": false,
          "name": "deposited",
          "type": "uint256"
        },
        {
          "indexed": false,
          "name": "received",
          "type": "uint256"
        },
        {
          "indexed": false,
          "name": "depositIndex",
          "type": "uint256"
        }
      ],
      "name": "EventNewDepositContract",
      "type": "event"
    },
    {
      "anonymous": false,
      "inputs": [
        {
          "indexed": false,
          "name": "clientId",
          "type": "bytes32"
        },
        {
          "indexed": false,
          "name": "populousTokenContract",
          "type": "address"
        },
        {
          "indexed": false,
          "name": "receiveCurrency",
          "type": "bytes32"
        },
        {
          "indexed": false,
          "name": "deposited",
          "type": "uint256"
        },
        {
          "indexed": false,
          "name": "received",
          "type": "uint256"
        },
        {
          "indexed": false,
          "name": "depositIndex",
          "type": "uint256"
        }
      ],
      "name": "EventNewDeposit",
      "type": "event"
    },
    {
      "anonymous": false,
      "inputs": [
        {
          "indexed": false,
          "name": "clientId",
          "type": "bytes32"
        },
        {
          "indexed": false,
          "name": "populousTokenContract",
          "type": "address"
        },
        {
          "indexed": false,
          "name": "releaseCurrency",
          "type": "bytes32"
        },
        {
          "indexed": false,
          "name": "deposited",
          "type": "uint256"
        },
        {
          "indexed": false,
          "name": "received",
          "type": "uint256"
        },
        {
          "indexed": false,
          "name": "depositIndex",
          "type": "uint256"
        }
      ],
      "name": "EventDepositReleased",
      "type": "event"
    }
  ],
  "bytecode": "0x6060604052341561000f57600080fd5b6040516020806143bd8339810160405280805160008054600160a060020a03909216600160a060020a03199092169190911790555050614369806100546000396000f3006060604052361561014d5763ffffffff60e060020a600035041662a4e863811461015257806302ab72c414610173578063110d3adc1461019257806317163ad8146101b15780631941f55b146101e05780632a2ef712146101ff5780632aba53fc146102215780633c00ab3c146102e157806348f11110146103005780634be99cd6146103b3578063554c9b6a146103d25780635e63067f146104035780637f84ceec1461042257806382cce80f1461043b57806383588aea1461045a57806390d64f3a1461047f578063931011ee146104aa578063a8860b40146104c0578063af8d309e146104e2578063c0ee0b8a146104fb578063c16ac06f14610560578063c284a81d14610573578063ccce317f146105dd578063d383b80d1461060c578063db86e0cb14610622578063dfda2b011461063b578063f3764ffa14610660578063f7f01b4b14610688575b600080fd5b341561015d57600080fd5b610171600160a060020a036004351661069b565b005b341561017e57600080fd5b610171600160a060020a036004351661091b565b341561019d57600080fd5b610171600160a060020a03600435166109ce565b34156101bc57600080fd5b6101c4610dd9565b604051600160a060020a03909116815260200160405180910390f35b34156101eb57600080fd5b610171600160a060020a0360043516610de8565b341561020a57600080fd5b610171600160a060020a0360043516602435610e9b565b341561022c57600080fd5b6102cd60048035600160a060020a03169060446024803590810190830135806020601f8201819004810201604051908101604052818152929190602084018383808284375094968635966020808201359750919550606081019450604090810135860180830194503592508291601f830181900481020190519081016040528181529291906020840183838082843750949650509335935061127a92505050565b604051901515815260200160405180910390f35b34156102ec57600080fd5b610171600160a060020a036004351661151c565b341561030b57600080fd5b610171600480359060248035916044359160849060643590810190830135806020601f820181900481020160405190810160405281815292919060208401838380828437509496863596602080820135975060408083013597509295506080820194506060909101358501808201935035918291601f830181900481020190519081016040528181529291906020840183838082843750949650509335935061191c92505050565b34156103be57600080fd5b610171600160a060020a0360043516611c37565b34156103dd57600080fd5b6103f1600160a060020a0360043516611cea565b60405190815260200160405180910390f35b341561040e57600080fd5b610171600435602435604435606435611d05565b341561042d57600080fd5b6103f1600435602435611d9b565b341561044657600080fd5b61017160043560ff60243516604435611dbc565b341561046557600080fd5b610171600160a060020a0360043516602435604435611f92565b341561048a57600080fd5b6102cd600435600160a060020a03602435166044356064356084356122de565b34156104b557600080fd5b6101716004356124ab565b34156104cb57600080fd5b610171600160a060020a03600435166024356125e2565b34156104ed57600080fd5b6102cd6004356024356128e9565b341561050657600080fd5b61017160048035600160a060020a03169060248035919060649060443590810190830135806020601f8201819004810201604051908101604052818152929190602084018383808284375094965061297c95505050505050565b341561056b57600080fd5b6101c4612ab9565b341561057e57600080fd5b6102cd60048035600160a060020a03169060248035916044359160849060643590810190830135806020601f820181900481020160405190810160405281815292919060208401838380828437509496505093359350612ac892505050565b34156105e857600080fd5b6102cd600435600160a060020a036024358116906044359060643516608435612ccc565b341561061757600080fd5b6101c4600435612ea9565b341561062d57600080fd5b6102cd600435602435612ec4565b341561064657600080fd5b610171600435600160a060020a0360243516604435612f50565b341561066b57600080fd5b610171600160a060020a03600435166024356044356064356131e6565b341561069357600080fd5b6101c4613450565b806000808080600160a060020a038516630cd87cff82604051602001526040518163ffffffff1660e060020a028152600401602060405180830381600087803b15156106e657600080fd5b6102c65a03f115156106f757600080fd5b50505060405180511515600114905061070f57600080fd5b84600160a060020a031663f52eb3856000604051604001526040518163ffffffff1660e060020a0281526004016040805180830381600087803b151561075457600080fd5b6102c65a03f1151561076557600080fd5b50505060405180519060200180519195509093505060ff84161561078857610913565b84600160a060020a0316636fbefedf6000604051602001526040518163ffffffff1660e060020a028152600401602060405180830381600087803b15156107ce57600080fd5b6102c65a03f115156107df57600080fd5b5050506040518051925050600160a060020a03851663968c42096000604051602001526040518163ffffffff1660e060020a028152600401602060405180830381600087803b151561083057600080fd5b6102c65a03f1151561084157600080fd5b5050506040518051905090506108678160c060020a67506f70756c6f757302848661345f565b84600160a060020a0316638942e19d6040518163ffffffff1660e060020a028152600401600060405180830381600087803b15156108a457600080fd5b6102c65a03f115156108b557600080fd5b5050507fd7dbae4b95599bb84a231f200f7e659db0829ec0875002a565180e9e9d32c00a86838386604051600160a060020a039094168452602084019290925260408084019190915260608301919091526080909101905180910390a15b505050505050565b60008054600160a060020a031690630c68ba219033906040516020015260405160e060020a63ffffffff8416028152600160a060020a039091166004820152602401602060405180830381600087803b151561097657600080fd5b6102c65a03f1151561098757600080fd5b50505060405180511515600114905061099f57600080fd5b6000805473ffffffffffffffffffffffffffffffffffffffff1916600160a060020a0392909216919091179055565b8060008080808080808080808060048c600160a060020a0316634e69d5606000604051602001526040518163ffffffff1660e060020a028152600401602060405180830381600087803b1515610a2357600080fd5b6102c65a03f11515610a3457600080fd5b5050506040518051905060ff166005811115610a4c57fe5b6005811115610a5757fe5b14610a6157610dca565b8b600160a060020a0316635cfa4d606000604051602001526040518163ffffffff1660e060020a028152600401602060405180830381600087803b1515610aa757600080fd5b6102c65a03f11515610ab857600080fd5b50505060405180519b5050600160a060020a038c1663ceb606548c600060405160a0015260405160e060020a63ffffffff8416028152600481019190915260240160a060405180830381600087803b1515610b1257600080fd5b6102c65a03f11515610b2357600080fd5b5050506040518051906020018051906020018051906020018051906020018051929e50909c50909a5050505087151560011415610b5f57610dca565b8b600160a060020a031663968c42096000604051602001526040518163ffffffff1660e060020a028152600401602060405180830381600087803b1515610ba557600080fd5b6102c65a03f11515610bb657600080fd5b5050506040518051975050600160a060020a038c166312fa769f6000604051602001526040518163ffffffff1660e060020a028152600401602060405180830381600087803b1515610c0757600080fd5b6102c65a03f11515610c1857600080fd5b5050506040518051965060009550505b89851015610dca578b600160a060020a031663dee50b248c8760006040516080015260405160e060020a63ffffffff851602815260048101929092526024820152604401608060405180830381600087803b1515610c8557600080fd5b6102c65a03f11515610c9657600080fd5b5050506040518051906020018051906020018051906020018051939750909550919350505060018215151415610ccb57610dbf565b88868402811515610cd857fe5b049050610cf58760c060020a67506f70756c6f757302868461345f565b8b600160a060020a03166319a0e16d8c8760405160e060020a63ffffffff851602815260048101929092526024820152604401600060405180830381600087803b1515610d4157600080fd5b6102c65a03f11515610d5257600080fd5b5050507ff88bb82be4a8c818d4a2024bb04d7d9503631b2177d9ef6abec545446528f4a68d8c868a8786604051600160a060020a03909616865260208601949094526040808601939093526060850191909152608084015260a083019190915260c0909101905180910390a15b600190940193610c28565b50505050505050505050505050565b600254600160a060020a031681565b60008054600160a060020a03169063fda089589033906040516020015260405160e060020a63ffffffff8416028152600160a060020a039091166004820152602401602060405180830381600087803b1515610e4357600080fd5b6102c65a03f11515610e5457600080fd5b505050604051805115156001149050610e6c57600080fd5b6002805473ffffffffffffffffffffffffffffffffffffffff1916600160a060020a0392909216919091179055565b81600080808080808080600489600160a060020a0316634e69d5606000604051602001526040518163ffffffff1660e060020a028152600401602060405180830381600087803b1515610eed57600080fd5b6102c65a03f11515610efe57600080fd5b5050506040518051905060ff166005811115610f1657fe5b6005811115610f2157fe5b14610f2b5761126d565b88600160a060020a0316635cfa4d606000604051602001526040518163ffffffff1660e060020a028152600401602060405180830381600087803b1515610f7157600080fd5b6102c65a03f11515610f8257600080fd5b5050506040518051985050600160a060020a03891663dee50b24898c60006040516080015260405160e060020a63ffffffff851602815260048101929092526024820152604401608060405180830381600087803b1515610fe257600080fd5b6102c65a03f11515610ff357600080fd5b5050506040518051906020018051906020018051906020018051939a5090985091965050851590508015611025575060015b1561126d5788600160a060020a031663ceb6065489600060405160a0015260405160e060020a63ffffffff8416028152600481019190915260240160a060405180830381600087803b151561107957600080fd5b6102c65a03f1151561108a57600080fd5b5050506040518051906020018051906020018051906020018051906020018051509097505050600160a060020a038b16915063968c420990506000604051602001526040518163ffffffff1660e060020a028152600401602060405180830381600087803b15156110fa57600080fd5b6102c65a03f1151561110b57600080fd5b5050506040518051935050600160a060020a0389166312fa769f6000604051602001526040518163ffffffff1660e060020a028152600401602060405180830381600087803b151561115c57600080fd5b6102c65a03f1151561116d57600080fd5b5050506040518051905091508382870281151561118657fe5b0490506111a38360c060020a67506f70756c6f757302898461345f565b88600160a060020a03166319a0e16d898c60405160e060020a63ffffffff851602815260048101929092526024820152604401600060405180830381600087803b15156111ef57600080fd5b6102c65a03f1151561120057600080fd5b5050507ff88bb82be4a8c818d4a2024bb04d7d9503631b2177d9ef6abec545446528f4a68b8989868a86604051600160a060020a03909616865260208601949094526040808601939093526060850191909152608084015260a083019190915260c0909101905180910390a15b5050505050505050505050565b6000805481908190819081908190600160a060020a031663fda0895833836040516020015260405160e060020a63ffffffff8416028152600160a060020a039091166004820152602401602060405180830381600087803b15156112dd57600080fd5b6102c65a03f115156112ee57600080fd5b50505060405180511515600114905061130657600080fd5b8b945084600160a060020a031663b503d8298c8c8c8c8c60006040516080015260405160e060020a63ffffffff881602815260248101859052604481018490526084810182905260a060048201908152908190606481019060a40188818151815260200191508051906020019080838360005b83811015611391578082015183820152602001611379565b50505050905090810190601f1680156113be5780820380516001836020036101000a031916815260200191505b50838103825285818151815260200191508051906020019080838360005b838110156113f45780820151838201526020016113dc565b50505050905090810190601f1680156114215780820380516001836020036101000a031916815260200191505b50975050505050505050608060405180830381600087803b151561144457600080fd5b6102c65a03f1151561145557600080fd5b505050604051805190602001805190602001805190602001805193975091955093509091505060ff84161515611508576114ff85600160a060020a031663968c42096000604051602001526040518163ffffffff1660e060020a028152600401602060405180830381600087803b15156114ce57600080fd5b6102c65a03f115156114df57600080fd5b505050604051805190508a60c060020a67506f70756c6f7573028661345f565b6001955061150d565b600095505b50505050509695505050505050565b80600080808080808080808060028b600160a060020a0316634e69d5606000604051602001526040518163ffffffff1660e060020a028152600401602060405180830381600087803b151561157057600080fd5b6102c65a03f1151561158157600080fd5b5050506040518051905060ff16600581111561159957fe5b60058111156115a457fe5b146115ae5761190e565b8a600160a060020a031663968c42096000604051602001526040518163ffffffff1660e060020a028152600401602060405180830381600087803b15156115f457600080fd5b6102c65a03f1151561160557600080fd5b50505060405180519a5050600160a060020a038b1663b84afbb46000604051602001526040518163ffffffff1660e060020a028152600401602060405180830381600087803b151561165657600080fd5b6102c65a03f1151561166757600080fd5b5050506040518051995050600160a060020a038b16635cfa4d606000604051602001526040518163ffffffff1660e060020a028152600401602060405180830381600087803b15156116b857600080fd5b6102c65a03f115156116c957600080fd5b5050506040518051985060009750505b8887101561190e578a600160a060020a031663ceb6065488600060405160a0015260405160e060020a63ffffffff8416028152600481019190915260240160a060405180830381600087803b151561173057600080fd5b6102c65a03f1151561174157600080fd5b5050506040518051906020018051906020018051906020018051906020018051929a5091985050505087891480159150611779575084155b1561190357600093505b85841015611903578a600160a060020a031663dee50b24888660006040516080015260405160e060020a63ffffffff851602815260048101929092526024820152604401608060405180830381600087803b15156117e057600080fd5b6102c65a03f115156117f157600080fd5b505050604051805190602001805190602001805190602001805193965090945091925050508015156118f8576118378a60c060020a67506f70756c6f757302858561345f565b8a600160a060020a03166319a0e16d888660405160e060020a63ffffffff851602815260048101929092526024820152604401600060405180830381600087803b151561188357600080fd5b6102c65a03f1151561189457600080fd5b5050507f508227ac703f8d9b80797fa399730693ceddc3527e5f74a7a48b1d55cca4883b8c88858d86604051600160a060020a03909516855260208501939093526040808501929092526060840152608083019190915260a0909101905180910390a15b600190930192611783565b6001909601956116d9565b505050505050505050505050565b600080548190600160a060020a031663fda0895833836040516020015260405160e060020a63ffffffff8416028152600160a060020a039091166004820152602401602060405180830381600087803b151561197757600080fd5b6102c65a03f1151561198857600080fd5b5050506040518051151560011490506119a057600080fd5b60008b815260046020526040902054600160a060020a031615156119c357600080fd5b600154600160a060020a03166348f111108c8c8c8c8c8c8c8c8c60006040516020015260405160e060020a63ffffffff8c16028152600481018a8152602482018a9052604482018990526084820187905260a4820186905260c48201859052610104820183905261012060648301908152909160e48101906101240189818151815260200191508051906020019080838360005b83811015611a6f578082015183820152602001611a57565b50505050905090810190601f168015611a9c5780820380516001836020036101000a031916815260200191505b50838103825285818151815260200191508051906020019080838360005b83811015611ad2578082015183820152602001611aba565b50505050905090810190601f168015611aff5780820380516001836020036101000a031916815260200191505b509b505050505050505050505050602060405180830381600087803b1515611b2657600080fd5b6102c65a03f11515611b3757600080fd5b505050604051805192505062015180420190507f20976887bda660e24a42e3399ed5ef459dabc2175074098882ce8ebe199bc8df828c8c8c8c8c8c88604051600160a060020a038916815260208101889052604081018790526060810186905260a0810184905260c0810183905260e081018290526101006080820181815290820186818151815260200191508051906020019080838360005b83811015611be9578082015183820152602001611bd1565b50505050905090810190601f168015611c165780820380516001836020036101000a031916815260200191505b50995050505050505050505060405180910390a15050505050505050505050565b60008054600160a060020a03169063fda089589033906040516020015260405160e060020a63ffffffff8416028152600160a060020a039091166004820152602401602060405180830381600087803b1515611c9257600080fd5b6102c65a03f11515611ca357600080fd5b505050604051805115156001149050611cbb57600080fd5b6001805473ffffffffffffffffffffffffffffffffffffffff1916600160a060020a0392909216919091179055565b600160a060020a031660009081526005602052604090205490565b60008054600160a060020a03169063fda089589033906040516020015260405160e060020a63ffffffff8416028152600160a060020a039091166004820152602401602060405180830381600087803b1515611d6057600080fd5b6102c65a03f11515611d7157600080fd5b505050604051805115156001149050611d8957600080fd5b611d958484848461345f565b50505050565b60008281526003602090815260408083208484529091529020545b92915050565b60008054600160a060020a031690630c68ba219033906040516020015260405160e060020a63ffffffff8416028152600160a060020a039091166004820152602401602060405180830381600087803b1515611e1757600080fd5b6102c65a03f11515611e2857600080fd5b505050604051805115156001149050611e4057600080fd5b600081815260046020526040902054600160a060020a031615611e6257600080fd5b600054600160a060020a0316838383611e79613710565b600160a060020a039094168452602084019290925260ff16604080840191909152606083019190915260809091019051809103906000f0801515611ebc57600080fd5b6000828152600460205260409020805473ffffffffffffffffffffffffffffffffffffffff1916600160a060020a039283161790819055161515611efc57fe5b60008181526004602081815260408084208054600160a060020a03908116865260058452828620879055948690529290915290547f49ed04561088f8c4d4b6cf512cfd6e87722fae11971dad08e91c480f46ef0a909286928692869216905193845260ff9092166020840152604080840191909152600160a060020a0390911660608301526080909101905180910390a1505050565b826000808080600285600160a060020a0316634e69d5606000604051602001526040518163ffffffff1660e060020a028152600401602060405180830381600087803b1515611fe057600080fd5b6102c65a03f11515611ff157600080fd5b5050506040518051905060ff16600581111561200957fe5b600581111561201457fe5b1461201e576122d4565b8685600160a060020a0316635cfa4d606000604051602001526040518163ffffffff1660e060020a028152600401602060405180830381600087803b151561206557600080fd5b6102c65a03f1151561207657600080fd5b505050604051805190501480156120ef575084600160a060020a0316630cd87cff6000604051602001526040518163ffffffff1660e060020a028152600401602060405180830381600087803b15156120ce57600080fd5b6102c65a03f115156120df57600080fd5b5050506040518051151560011490505b156120f9576122d4565b84600160a060020a031663dee50b24888860006040516080015260405160e060020a63ffffffff851602815260048101929092526024820152604401608060405180830381600087803b151561214e57600080fd5b6102c65a03f1151561215f57600080fd5b505050604051805190602001805190602001805190602001805193975090955091935050821590508015612191575060015b156122d45784600160a060020a031663968c42096000604051602001526040518163ffffffff1660e060020a028152600401602060405180830381600087803b15156121dc57600080fd5b6102c65a03f115156121ed57600080fd5b5050506040518051905090506122138160c060020a67506f70756c6f757302868661345f565b84600160a060020a03166319a0e16d888860405160e060020a63ffffffff851602815260048101929092526024820152604401600060405180830381600087803b151561225f57600080fd5b6102c65a03f1151561227057600080fd5b5050507f508227ac703f8d9b80797fa399730693ceddc3527e5f74a7a48b1d55cca4883b8888868487604051600160a060020a03909516855260208501939093526040808501929092526060840152608083019190915260a0909101905180910390a15b5050505050505050565b6000805481908190600160a060020a031663fda0895833836040516020015260405160e060020a63ffffffff8416028152600160a060020a039091166004820152602401602060405180830381600087803b151561233b57600080fd5b6102c65a03f1151561234c57600080fd5b50505060405180511515600114905061236457600080fd5b600254600160a060020a03166390d64f3a898989898960006040516040015260405160e060020a63ffffffff88160281526004810195909552600160a060020a03909316602485015260448401919091526064830152608482015260a4016040805180830381600087803b15156123da57600080fd5b6102c65a03f115156123eb57600080fd5b505050604051805190602001805191935090915050811561249b57612410868561355b565b5061242b8660c060020a67506f70756c6f7573028a8761345f565b7ff120c283702a0153dde599235e898e3273954cc6f34256add8928e4b51c8b639888888888886604051958652600160a060020a0390941660208601526040808601939093526060850191909152608084015260a083019190915260c0909101905180910390a1600192506124a0565b600092505b505095945050505050565b60008054600160a060020a031663fda0895833836040516020015260405160e060020a63ffffffff8416028152600160a060020a039091166004820152602401602060405180830381600087803b151561250457600080fd5b6102c65a03f1151561251557600080fd5b50505060405180511515600114905061252d57600080fd5b600254600160a060020a0316637368a8ce8360006040516020015260405160e060020a63ffffffff84160281526004810191909152602401602060405180830381600087803b151561257e57600080fd5b6102c65a03f1151561258f57600080fd5b5050506040518051905090507f331e8d7fbf36512cd5eb514f38db31465c8f937497c179aa3eda3250125028fc8282604051918252600160a060020a031660208201526040908101905180910390a15050565b600080548190600160a060020a031663fda0895833836040516020015260405160e060020a63ffffffff8416028152600160a060020a039091166004820152602401602060405180830381600087803b151561263d57600080fd5b6102c65a03f1151561264e57600080fd5b50505060405180511515600114905061266657600080fd5b839150600382600160a060020a0316634e69d5606000604051602001526040518163ffffffff1660e060020a028152600401602060405180830381600087803b15156126b157600080fd5b6102c65a03f115156126c257600080fd5b5050506040518051905060ff1660058111156126da57fe5b60058111156126e557fe5b1480612753575081600160a060020a0316635e054efb6000604051602001526040518163ffffffff1660e060020a028152600401602060405180830381600087803b151561273257600080fd5b6102c65a03f1151561274357600080fd5b5050506040518051151560011490505b151561275b57fe5b8282600160a060020a0316637478901d6000604051602001526040518163ffffffff1660e060020a028152600401602060405180830381600087803b15156127a257600080fd5b6102c65a03f115156127b357600080fd5b50505060405180519050111515156127ca57600080fd5b81600160a060020a031663968c42096000604051602001526040518163ffffffff1660e060020a028152600401602060405180830381600087803b151561281057600080fd5b6102c65a03f1151561282157600080fd5b505050604051805190509050612837818461355b565b5081600160a060020a03166385d8ed7d8460405160e060020a63ffffffff84160281526004810191909152602401600060405180830381600087803b151561287e57600080fd5b6102c65a03f1151561288f57600080fd5b5050507f58ceb9549b0424f0618abff77cfb7b958eccca0d2b63317ff25ac1f209dc6cbe848285604051600160a060020a03909316835260208301919091526040808301919091526060909101905180910390a150505050565b60008054600160a060020a0316630c68ba2133836040516020015260405160e060020a63ffffffff8416028152600160a060020a039091166004820152602401602060405180830381600087803b151561294257600080fd5b6102c65a03f1151561295357600080fd5b50505060405180511515600114905061296b57600080fd5b612975838361355b565b9392505050565b600160a060020a033316600090815260056020526040812054906020830151905033600160a060020a03166367fbd2898560006040516020015260405160e060020a63ffffffff84160281526004810191909152602401602060405180830381600087803b15156129ec57600080fd5b6102c65a03f115156129fd57600080fd5b505050604051805115159050612a1257600080fd5b6000828152600360209081526040808320848452909152902054612a369085613622565b600083815260036020908152604080832085845290915290819020919091557f69e095c0bc91e7b7822a8148750c82d58b30d6530f1fa544fe8496b762b2b8ec90869083908590889051600160a060020a039094168452602084019290925260408084019190915260608301919091526080909101905180910390a15050505050565b600154600160a060020a031681565b6000805481908190819081908190600160a060020a031663fda0895833836040516020015260405160e060020a63ffffffff8416028152600160a060020a039091166004820152602401602060405180830381600087803b1515612b2b57600080fd5b6102c65a03f11515612b3c57600080fd5b505050604051805115156001149050612b5457600080fd5b8a945084600160a060020a031663f29c2e8b8b8b8b8b60006040516080015260405160e060020a63ffffffff8716028152600481018581526024820185905260648201839052608060448301908152909160840184818151815260200191508051906020019080838360005b83811015612bd8578082015183820152602001612bc0565b50505050905090810190601f168015612c055780820380516001836020036101000a031916815260200191505b5095505050505050608060405180830381600087803b1515612c2657600080fd5b6102c65a03f11515612c3757600080fd5b505050604051805190602001805190602001805190602001805193975091955093509091505060ff84161515612cb957612cb085600160a060020a031663968c42096000604051602001526040518163ffffffff1660e060020a028152600401602060405180830381600087803b15156114ce57600080fd5b60019550612cbe565b600095505b505050505095945050505050565b60008054819081908190600160a060020a031663fda0895833836040516020015260405160e060020a63ffffffff8416028152600160a060020a039091166004820152602401602060405180830381600087803b1515612d2b57600080fd5b6102c65a03f11515612d3c57600080fd5b505050604051805115156001149050612d5457600080fd5b600254600160a060020a031663ccce317f8a8a8a8a8a60006040516060015260405160e060020a63ffffffff88160281526004810195909552600160a060020a03938416602486015260448501929092529091166064830152608482015260a401606060405180830381600087803b1515612dce57600080fd5b6102c65a03f11515612ddf57600080fd5b5050506040518051906020018051906020018051929550909350909150508215612e9857612e1d878a60c060020a67506f70756c6f7573028461345f565b612e27878261363f565b507fbc56f62e82bebdc69f74f6678f58f9e76155da7a0b9fc8c70bb9cf65dbbc772f89898985858a604051958652600160a060020a0390941660208601526040808601939093526060850191909152608084015260a083019190915260c0909101905180910390a160019350612e9d565b600093505b50505095945050505050565b600090815260046020526040902054600160a060020a031690565b60008054600160a060020a0316630c68ba2133836040516020015260405160e060020a63ffffffff8416028152600160a060020a039091166004820152602401602060405180830381600087803b1515612f1d57600080fd5b6102c65a03f11515612f2e57600080fd5b505050604051805115156001149050612f4657600080fd5b612975838361363f565b600080548190600160a060020a03166305fd22d033836040516020015260405160e060020a63ffffffff8416028152600160a060020a039091166004820152602401602060405180830381600087803b1515612fab57600080fd5b6102c65a03f11515612fbc57600080fd5b505050604051805115156001149050612fd457600080fd5b60008581526004602052604080822054600160a060020a0316935083916370a0823191879190516020015260405160e060020a63ffffffff8416028152600160a060020a039091166004820152602401602060405180830381600087803b151561303d57600080fd5b6102c65a03f1151561304e57600080fd5b505050604051805190509050600082600160a060020a03166370a082318660006040516020015260405160e060020a63ffffffff8416028152600160a060020a039091166004820152602401602060405180830381600087803b15156130b357600080fd5b6102c65a03f115156130c457600080fd5b50505060405180519050118015613155575081600160a060020a0316630156b323828660006040516020015260405160e060020a63ffffffff85160281526004810192909252600160a060020a03166024820152604401602060405180830381600087803b151561313457600080fd5b6102c65a03f1151561314557600080fd5b5050506040518051151560011490505b151561316057600080fd5b61316a85826128e9565b506131858560c060020a67506f70756c6f757302858461345f565b7f7a1a09f5ee849f58f4fbd74e45209654bbb5f6daabd493c38f6c376586adc7b784848784604051600160a060020a039094168452602084019290925260408084019190915260608301919091526080909101905180910390a15050505050565b60008054600160a060020a031690630c68ba219033906040516020015260405160e060020a63ffffffff8416028152600160a060020a039091166004820152602401602060405180830381600087803b151561324157600080fd5b6102c65a03f1151561325257600080fd5b50505060405180511515600114905061326a57600080fd5b600082815260046020526040902054600160a060020a0316158015906132aa57506000828152600360209081526040808320868452909152902054819010155b15156132b557600080fd5b60008281526003602090815260408083208684529091529020546132d990826136fe565b60008381526003602090815260408083208784528252808320939093558482526004905281902054600160a060020a0316906397304ced9083905160e060020a63ffffffff84160281526004810191909152602401600060405180830381600087803b151561334757600080fd5b6102c65a03f1151561335857600080fd5b50505060008281526004602052604080822054600160a060020a03169163a9059cbb9187918591516020015260405160e060020a63ffffffff8516028152600160a060020a0390921660048301526024820152604401602060405180830381600087803b15156133c757600080fd5b6102c65a03f115156133d857600080fd5b5050506040518051151560011490506133f057600080fd5b7fba038c3213aad8d82fb521344ca1128ef9ec8022929ede861afcacd97542405d84848484604051600160a060020a039094168452602084019290925260408084019190915260608301919091526080909101905180910390a150505050565b600054600160a060020a031681565b80151561346b57611d95565b60008481526003602090815260408083208684529091529020548190101561349257600080fd5b60008481526003602090815260408083208684529091529020546134b690826136fe565b60008581526003602090815260408083208784529091528082209290925583815220546134e39082613622565b600085815260036020908152604080832086845290915290819020919091557f1b6f5dbe1f187f524cf1ec27da6fb055fca9617e83af0d7038fdeb87c50fa0d390859085908590859051938452602084019290925260408084019190915260608301919091526080909101905180910390a150505050565b600082815260046020526040812054600160a060020a03161561361a57600083815260036020908152604080832060c060020a67506f70756c6f75730284529091529020546135aa9083613622565b600084815260036020908152604080832060c060020a67506f70756c6f757302845290915290819020919091557fb83a9cb495aa43a9871c87805ab90712a5f703de6d66d16b96d7afcc91bb329990849084905191825260208201526040908101905180910390a1506001611db6565b506000611db6565b60008282018381108015906136375750828110155b151561297557fe5b600082815260046020526040812054600160a060020a03161561361a57600083815260036020908152604080832060c060020a67506f70756c6f757302845290915290205461368e90836136fe565b600084815260036020908152604080832060c060020a67506f70756c6f757302845290915290819020919091557f855ddfcb23a7313ebf5b93128f0915bcfa763727e34f612276cf06a7e7bf2b1e90849084905191825260208201526040908101905180910390a1506001611db6565b60008282111561370a57fe5b50900390565b604051610c1d80613721833901905600606060405260008055341561001357600080fd5b604051608080610c1d8339810160405280805191906020018051919060200180519190602001805160068054600160a060020a031916600160a060020a03979097169690961790955550506001919091556002805460ff191660ff909216919091179055600355610b94806100896000396000f300606060405236156100ca5763ffffffff60e060020a6000350416630156b32381146100cf57806302ab72c41461010557806306fdde0314610126578063095ea7b31461014b57806318160ddd1461016d57806323b872dd1461018057806327e235e3146101a8578063313ce567146101c75780635c658165146101f057806367fbd2891461021557806370a082311461022b57806395d89b411461024a57806397304ced1461025d578063a9059cbb14610273578063dd62ed3e14610295578063f7f01b4b146102ba575b600080fd5b34156100da57600080fd5b6100f1600435600160a060020a03602435166102e9565b604051901515815260200160405180910390f35b341561011057600080fd5b610124600160a060020a03600435166103ed565b005b341561013157600080fd5b61013961049e565b60405190815260200160405180910390f35b341561015657600080fd5b6100f1600160a060020a03600435166024356104a4565b341561017857600080fd5b610139610510565b341561018b57600080fd5b6100f1600160a060020a0360043581169060243516604435610516565b34156101b357600080fd5b610139600160a060020a036004351661061c565b34156101d257600080fd5b6101da61062e565b60405160ff909116815260200160405180910390f35b34156101fb57600080fd5b610139600160a060020a0360043581169060243516610637565b341561022057600080fd5b6100f1600435610654565b341561023657600080fd5b610139600160a060020a0360043516610898565b341561025557600080fd5b6101396108b3565b341561026857600080fd5b6101246004356108b9565b341561027e57600080fd5b6100f1600160a060020a0360043516602435610a64565b34156102a057600080fd5b610139600160a060020a0360043581169060243516610af8565b34156102c557600080fd5b6102cd610b23565b604051600160a060020a03909116815260200160405180910390f35b600654600090600160a060020a03166305fd22d033836040516020015260405160e060020a63ffffffff8416028152600160a060020a039091166004820152602401602060405180830381600087803b151561034457600080fd5b6102c65a03f1151561035557600080fd5b50505060405180511515600114905061036d57600080fd5b600160a060020a03821660009081526004602052604090205483901015610396575060006103e7565b600160a060020a0382166000908152600460205260409020546103b99084610b32565b600160a060020a038316600090815260046020526040812091909155546103e09084610b32565b6000555060015b92915050565b600654600160a060020a0316630c68ba213360006040516020015260405160e060020a63ffffffff8416028152600160a060020a039091166004820152602401602060405180830381600087803b151561044657600080fd5b6102c65a03f1151561045757600080fd5b50505060405180511515600114905061046f57600080fd5b6006805473ffffffffffffffffffffffffffffffffffffffff1916600160a060020a0392909216919091179055565b60015481565b600160a060020a03338116600081815260056020908152604080832094871680845294909152808220859055909291907f8c5be1e5ebec7d5bd14f71427d1e84f3dd0314c0f7b2291e5b200ac8c7c3b9259085905190815260200160405180910390a350600192915050565b60005481565b600160a060020a03808416600081815260056020908152604080832033909516835293815283822054928252600490529182205483901080159061055a5750828110155b151561056557600080fd5b600160a060020a03808516600090815260046020526040808220805487019055918716815220805484900390556000198110156105ca57600160a060020a03808616600090815260056020908152604080832033909416835292905220805484900390555b83600160a060020a031685600160a060020a03167fddf252ad1be2c89b69c2b068fc378daa952ba7f163c4a11628f55a4df523b3ef8560405190815260200160405180910390a3506001949350505050565b60046020526000908152604090205481565b60025460ff1681565b600560209081526000928352604080842090915290825290205481565b600654600090600160a060020a03166305fd22d033836040516020015260405160e060020a63ffffffff8416028152600160a060020a039091166004820152602401602060405180830381600087803b15156106af57600080fd5b6102c65a03f115156106c057600080fd5b5050506040518051151560011490506106d857600080fd5b6006548290600490600090600160a060020a03166394a3760f82604051602001526040518163ffffffff1660e060020a028152600401602060405180830381600087803b151561072757600080fd5b6102c65a03f1151561073857600080fd5b5050506040518051600160a060020a0316825250602081019190915260400160002054101561076957506000610893565b6006546107f490600490600090600160a060020a03166394a3760f82604051602001526040518163ffffffff1660e060020a028152600401602060405180830381600087803b15156107ba57600080fd5b6102c65a03f115156107cb57600080fd5b5050506040518051600160a060020a031682525060208101919091526040016000205483610b32565b600654600490600090600160a060020a03166394a3760f82604051602001526040518163ffffffff1660e060020a028152600401602060405180830381600087803b151561084157600080fd5b6102c65a03f1151561085257600080fd5b50505060405180519050600160a060020a0316600160a060020a031681526020019081526020016000208190555061088c60005483610b32565b6000555060015b919050565b600160a060020a031660009081526004602052604090205490565b60035481565b600654600160a060020a03166305fd22d03360006040516020015260405160e060020a63ffffffff8416028152600160a060020a039091166004820152602401602060405180830381600087803b151561091257600080fd5b6102c65a03f1151561092357600080fd5b50505060405180511515600114905061093b57600080fd5b6006546109c690600490600090600160a060020a03166394a3760f82604051602001526040518163ffffffff1660e060020a028152600401602060405180830381600087803b151561098c57600080fd5b6102c65a03f1151561099d57600080fd5b5050506040518051600160a060020a031682525060208101919091526040016000205482610b44565b600654600490600090600160a060020a03166394a3760f82604051602001526040518163ffffffff1660e060020a028152600401602060405180830381600087803b1515610a1357600080fd5b6102c65a03f11515610a2457600080fd5b50505060405180519050600160a060020a0316600160a060020a0316815260200190815260200160002081905550610a5e60005482610b44565b60005550565b600160a060020a03331660009081526004602052604081205482901015610a8a57600080fd5b600160a060020a033381166000818152600460205260408082208054879003905592861680825290839020805486019055917fddf252ad1be2c89b69c2b068fc378daa952ba7f163c4a11628f55a4df523b3ef9085905190815260200160405180910390a350600192915050565b600160a060020a03918216600090815260056020908152604080832093909416825291909152205490565b600654600160a060020a031681565b600082821115610b3e57fe5b50900390565b6000828201838110801590610b595750828110155b1515610b6157fe5b93925050505600a165627a7a723058202d368fcbdaf5a607b82946ba68f95a52c1a438d7d00f75f6872734da542c32fc0029a165627a7a7230582037c4015d6102fe2f68036037fb18ecd129be4e28c7587d46bfbff96407c3123b0029",
  "source": "/**\nThis is the core module of the system. Currently it holds the code of\nthe Bank and crowdsale modules to avoid external calls and higher gas costs.\nIt might be a good idea in the future to split the code, separate Bank\nand crowdsale modules into external files and have the core interact with them\nwith addresses and interfaces. \n*/\npragma solidity ^0.4.17;\n\nimport \"./CurrencyToken.sol\";\nimport \"./iCrowdsale.sol\";\nimport \"./iCrowdsaleManager.sol\";\nimport \"./iDepositContractsManager.sol\";\n\n\n/// @title Populous contract\ncontract Populous is withAccessManager {\n\n    // EVENTS\n\n    // Bank events\n    event EventNewCurrency(bytes32 tokenName, uint8 decimalUnits, bytes32 tokenSymbol, address addr);\n    event EventMintTokens(bytes32 currency, uint amount);\n    event EventDestroyTokens(bytes32 currency, uint amount);\n    event EventInternalTransfer(bytes32 currency, bytes32 fromId, bytes32 toId, uint amount);\n    event EventWithdrawal(address to, bytes32 clientId, bytes32 currency, uint amount);\n    event EventDeposit(address from, bytes32 clientId, bytes32 currency, uint amount);\n    event EventImportedPokens(address from, bytes32 clientId, bytes32 currency, uint amount);\n\n    // crowdsale events\n    event EventNewCrowdsale(address crowdsale, bytes32 _currencySymbol, bytes32 _borrowerId, bytes32 _invoiceId, string _invoiceNumber, uint _invoiceAmount, uint _fundingGoal, uint deadline);\n    event EventBeneficiaryFunded(address crowdsaleAddr, bytes32 borrowerId, bytes32 currency, uint amount);\n    event EventLosingGroupBidderRefunded(address crowdsaleAddr, uint groupIndex, bytes32 bidderId, bytes32 currency, uint amount);\n    event EventPaymentReceived(address crowdsaleAddr, bytes32 currency, uint amount);\n    event EventWinnerGroupBidderFunded(address crowdsaleAddr, uint groupIndex, bytes32 bidderId, bytes32 currency, uint bidAmount, uint benefitsAmount);\n\n    // PPT deposits events\n    event EventNewDepositContract(bytes32 clientId, address depositContractAddress);\n    event EventNewDeposit(bytes32 clientId, address populousTokenContract, bytes32 receiveCurrency, uint deposited, uint received, uint depositIndex);\n    event EventDepositReleased(bytes32 clientId, address populousTokenContract, bytes32 releaseCurrency, uint deposited, uint received, uint depositIndex);\n\n\n    // FIELDS\n\n    // Constant fields\n\n    bytes32 constant LEDGER_SYSTEM_ACCOUNT = \"Populous\";\n    // This has to be the same one as in Crowdsale\n    enum States { Pending, Open, Closed, WaitingForInvoicePayment, PaymentReceived, Completed }\n\n    // Fields that can be changed by functions\n\n    // conract type fields\n    iCrowdsaleManager public CM;\n    iDepositContractsManager public DCM;\n\n    // The 'ledger' will hold records of the amount of tokens\n    // an account holds and what currency it is.\n    // This amount will be retrieved using the currency symbol and \n    // account ID as keys.\n    // currencySymbol => (accountId => amount)\n    mapping(bytes32 => mapping(bytes32 => uint)) ledger;\n\n    mapping(bytes32 => address) currencies;\n    mapping(address => bytes32) currenciesSymbols;\n\n\n    // NON-CONSTANT METHODS\n\n    // Constructor method called when contract instance is \n    // deployed with 'withAccessManager' modifier.\n    function Populous(address _accessManager) public withAccessManager(_accessManager) { }\n\n    // Sets the crowdsale manager address\n    function setCM(address _crowdsaleManager) public onlyServer {\n        CM = iCrowdsaleManager(_crowdsaleManager);\n    }\n\n    // Sets the deposit contracts manager address\n    function setDCM(address _depositContractsManager) public onlyServer {\n        DCM = iDepositContractsManager(_depositContractsManager);\n    }\n\n    /**\n    BANK MODULE\n    */\n\n    // NON-CONSTANT METHODS\n\n    \n    /** @dev Creates a new token/currency.\n      * @param _tokenName  The name of the currency.\n      * @param _decimalUnits The number of decimals the currency has.\n      * @param _tokenSymbol The cyrrency symbol, e.g., GBP\n      */\n    function createCurrency(bytes32 _tokenName, uint8 _decimalUnits, bytes32 _tokenSymbol)\n        public\n        onlyGuardian\n    {\n        // Check if currency already exists\n        require(currencies[_tokenSymbol] == 0x0);\n\n        currencies[_tokenSymbol] = new CurrencyToken(address(AM), _tokenName, _decimalUnits, _tokenSymbol);\n        \n        assert(currencies[_tokenSymbol] != 0x0);\n\n        currenciesSymbols[currencies[_tokenSymbol]] = _tokenSymbol;\n\n        EventNewCurrency(_tokenName, _decimalUnits, _tokenSymbol, currencies[_tokenSymbol]);\n    }\n\n    // Deposit function called by our external ERC23 tokens upon transfer to the contract\n    function tokenFallback(address from, uint amount, bytes data) public {\n        bytes32 currencySymbol = currenciesSymbols[msg.sender];\n\n        require(currencySymbol.length != 0);\n\n        bytes32 clientId;\n        assembly {\n            clientId := mload(add(data, 32))\n        }\n        require(CurrencyToken(msg.sender).destroyTokens(amount) != false);\n        \n        ledger[currencySymbol][clientId] = SafeMath.safeAdd(ledger[currencySymbol][clientId], amount);\n        EventDeposit(from, clientId, currencySymbol, amount);\n    }\n\n    /** @dev Allows a token owner to withdraw from their wallet to another address\n      * @param clientExternal The address to transfer withdrawn amount to.\n      * @param clientId The client ID.\n      * @param currency The cyrrency symbol, e.g., GBP\n      * @param amount The amount.\n      */\n    function withdraw(address clientExternal, bytes32 clientId, bytes32 currency, uint amount) public onlyGuardian {\n        require(currencies[currency] != 0x0 && ledger[currency][clientId] >= amount);\n\n        ledger[currency][clientId] = SafeMath.safeSub(ledger[currency][clientId], amount);\n\n        CurrencyToken(currencies[currency]).mintTokens(amount);\n        require(CurrencyToken(currencies[currency]).transfer(clientExternal, amount) == true);\n\n        EventWithdrawal(clientExternal, clientId, currency, amount);\n    }\n    \n    /** @dev Mints/Generates a specified amount of tokens \n      * @dev The method calls '_mintTokens' and \n      * @dev uses a modifier from withAccessManager contract to only permit populous to use it.\n      * @param amount The amount of tokens to create.\n      * @param currency The related currency to mint.\n      */\n    function mintTokens(bytes32 currency, uint amount)\n        public\n        onlyGuardian\n        returns (bool success)\n    {\n        return _mintTokens(currency, amount);\n    }\n\n    /** @dev Mints/Generates a specified amount of tokens \n      * @dev The method is called by 'mintTokens'.\n      * @dev The method uses SafeMath to carry out safe additions.\n      * @param amount The amount of tokens to create.\n      * @param currency The related currency to mint.\n      */\n    function _mintTokens(bytes32 currency, uint amount)\n        private returns (bool success)\n    {\n        if (currencies[currency] != 0x0) {\n            ledger[currency][LEDGER_SYSTEM_ACCOUNT] = SafeMath.safeAdd(ledger[currency][LEDGER_SYSTEM_ACCOUNT], amount);\n            EventMintTokens(currency, amount);\n            return true;\n        } else {\n            return false;\n        }\n    }\n\n    /** @dev Destroys a specified amount of tokens \n      * @dev The method uses a modifier from withAccessManager contract to only permit token guardian to use it.\n      * @param amount The amount of tokens to create.\n      * @param currency The related currency to mint.\n      */\n    function destroyTokens(bytes32 currency, uint amount)\n        public onlyGuardian returns (bool success)\n    {\n        return _destroyTokens(currency, amount);\n    }\n    \n    /** @dev Destroys a specified amount of tokens \n      * @dev The method uses a modifier from withAccessManager contract to only permit token guardian to use it.\n      * @dev The method uses SafeMath to carry out safe token deductions/subtraction.\n      * @param amount The amount of tokens to create.\n      * @param currency The related currency to mint.\n      */\n    function _destroyTokens(bytes32 currency, uint amount)\n        private returns (bool success)\n    {\n        if (currencies[currency] != 0x0) {\n            ledger[currency][LEDGER_SYSTEM_ACCOUNT] = SafeMath.safeSub(ledger[currency][LEDGER_SYSTEM_ACCOUNT], amount);\n            EventDestroyTokens(currency, amount);\n            return true;\n        } else {\n            return false;\n        }\n    }    \n\n    // Calls the _transfer method to make a transfer on the internal ledger.\n    function transfer(bytes32 currency, bytes32 from, bytes32 to, uint amount) public onlyServer {\n        _transfer(currency, from, to, amount);\n    }\n\n    /** @dev Transfers an amount of a specific currency from 'from' to 'to' on the ledger.\n      * @param currency The currency for the transaction.\n      * @param from The client to debit.\n      * @param to The client to credit\n      * @param amount The amount to transfer.\n      */\n    function _transfer(bytes32 currency, bytes32 from, bytes32 to, uint amount) private {\n        if (amount == 0) {return;}\n        require(ledger[currency][from] >= amount);\n    \n        ledger[currency][from] = SafeMath.safeSub(ledger[currency][from], amount);\n        ledger[currency][to] = SafeMath.safeAdd(ledger[currency][to], amount);\n\n        EventInternalTransfer(currency, from, to, amount);\n    }\n\n    \n    function importExternalPokens(bytes32 currency, address from, bytes32 accountId) public onlyPopulous {\n        CurrencyToken CT = CurrencyToken(currencies[currency]);\n        \n        //check balance.\n        uint256 balance = CT.balanceOf(from);\n        //balance is more than 0, and balance has been destroyed.\n        require(CT.balanceOf(from) > 0 && CT.destroyTokensFrom(balance, from) == true);\n\n        //credit ledger\n        mintTokens(currency, balance);\n        //credit account\n        _transfer(currency, LEDGER_SYSTEM_ACCOUNT, accountId, balance);\n        //emit event: Imported currency to system\n       EventImportedPokens(from, accountId,currency,balance);\n    }\n\n    // NON-CONSTANT METHODS\n\n    /** @dev Gets a ledger entry.\n      * @param currency The currency for the transaction.\n      * @param accountId The entry id.\n      * @return uint The currency amount linked to the ledger entry\n      */\n    function getLedgerEntry(bytes32 currency, bytes32 accountId) public view returns (uint) {\n        return ledger[currency][accountId];\n    }\n\n    /** @dev Gets the address of a currency.\n      * @param currency The currency.\n      * @return address The currency address.\n      */\n    function getCurrency(bytes32 currency) public view returns (address) {\n        return currencies[currency];\n    }\n\n    /** @dev Gets the currency symbol of a currency.\n      * @param currency The currency.\n      * @return bytes32 The currency sybmol, e.g., GBP.\n      */\n    function getCurrencySymbol(address currency) public view returns (bytes32) {\n        return currenciesSymbols[currency];\n    }\n\n    /**\n    END OF BANK MODULE\n    */\n\n    /**\n    crowdsale MODULE\n    */\n\n    // NON-CONSTANT METHODS\n\n\n    /** @dev Creates a new Crowdsale contract instance for an invoice crowdsale restricted to server.\n      * @param _currencySymbol The currency symbol, e.g., GBP.\n      * @param _borrowerId The unique borrower ID.\n      * @param _invoiceId The unique invoice ID.\n      * @param _invoiceNumber The unique invoice number.\n      * @param _invoiceAmount The invoice amount.\n      * @param _fundingGoal The funding goal of the borrower.\n      * @param _platformTaxPercent The percentage charged by the platform\n      * @param _signedDocumentIPFSHash The hash of related invoice documentation saved on IPFS.\n      */\n    function createCrowdsale(\n            bytes32 _currencySymbol,\n            bytes32 _borrowerId,\n            bytes32 _invoiceId,\n            string _invoiceNumber,\n            uint _invoiceAmount,\n            uint _fundingGoal,\n            uint _platformTaxPercent,\n            string _signedDocumentIPFSHash,\n            uint _extraTime)\n        public onlyServer\n    {\n        require(currencies[_currencySymbol] != 0x0);\n\n        address crowdsaleAddr = CM.createCrowdsale(\n            _currencySymbol,\n            _borrowerId,\n            _invoiceId,\n            _invoiceNumber,\n            _invoiceAmount,\n            _fundingGoal,\n            _platformTaxPercent,\n            _signedDocumentIPFSHash,\n            _extraTime\n        );\n\n        uint deadline = now + 24 hours;\n\n        EventNewCrowdsale(crowdsaleAddr, _currencySymbol, _borrowerId, _invoiceId, _invoiceNumber, _invoiceAmount, _fundingGoal, deadline);\n\n    }\n\n\n    /** @dev Allows a bidder to place a bid in an invoice crowdsale.\n      * @param groupIndex The index/location of a group in a set of groups.\n      * @param bidderId The bidder id/location in a set of bidders.\n      * @param name The bidder name.\n      * @param value The bid value.\n      * @param crowdsaleAddr The address of the crowdsale contract.\n      * @return success A boolean value indicating whether a bid has been successful.\n      */\n    function bid(address crowdsaleAddr, uint groupIndex, bytes32 bidderId, string name, uint value)\n        public onlyServer returns (bool success)\n    {\n        iCrowdsale CS = iCrowdsale(crowdsaleAddr);\n\n        uint8 err;\n        uint finalValue;\n        uint groupGoal;\n        bool goalReached;\n        (err, finalValue, groupGoal, goalReached) = CS.bid(groupIndex, bidderId, name, value);\n\n        if (err == 0) {\n            _transfer(CS.currencySymbol(), bidderId, LEDGER_SYSTEM_ACCOUNT, finalValue);\n            return true;\n        } else {\n            return false;\n        }\n    }\n\n    /** @dev Allows a first time bidder to create a new group if they do not belong to a group\n      * @dev and place an intial bid.\n      * @dev This function creates a group and calls the bid() function.\n      * @param groupName The name of the new investor group to be created.\n      * @param goal The group funding goal.\n      * @param bidderId The bidder id/location in a set of bidders.\n      * @param name The bidder name.\n      * @param value The bid value.\n      * @param crowdsaleAddr The address of the crowdsale contract.\n      * @return err 0 or 1 implying absence or presence of error.\n      * @return finalValue All bidder's bids value.\n      * @return groupGoal An unsigned integer representing the group's goal.\n      * @return goalReached A boolean value indicating whether the group goal has reached or not.\n      */\n    function initialBid(address crowdsaleAddr, string groupName, uint goal, bytes32 bidderId, string name, uint value)\n        public onlyServer returns (bool success)\n    {\n        iCrowdsale CS = iCrowdsale(crowdsaleAddr);\n\n        uint8 err;\n        uint finalValue;\n        uint groupGoal;\n        bool goalReached;\n        (err, finalValue, groupGoal, goalReached) = CS.initialBid(groupName, goal, bidderId, name, value);\n\n        if (err == 0) {\n            _transfer(CS.currencySymbol(), bidderId, LEDGER_SYSTEM_ACCOUNT, finalValue);\n            return true;\n        } else {\n            return false;\n        }\n    }\n    /** @dev Funds an invoice crowdsale address with tokens\n      * @param crowdsaleAddr The invoice crowdsale address to fund\n      */\n    function fundBeneficiary(address crowdsaleAddr) public {\n        iCrowdsale CS = iCrowdsale(crowdsaleAddr);\n        require(CS.getHasWinnerGroup() == true);// bug fix - there has to be winner group set before beneficiary is funded\n\n        uint8 err;\n        uint amount;\n        (err, amount) = CS.getAmountForBeneficiary();\n        if (err != 0) { return; }\n\n        bytes32 borrowerId = CS.borrowerId();\n        bytes32 currency = CS.currencySymbol();\n        _transfer(currency, LEDGER_SYSTEM_ACCOUNT, borrowerId, amount);\n\n        CS.setSentToBeneficiary();\n        EventBeneficiaryFunded(crowdsaleAddr, borrowerId, currency, amount);\n    }\n\n    /** @dev Transfers refund to loosing groups after crowdsale has closed.\n      * @dev This function has to be split, because it might exceed the gas limit, if the groups and bidders are too many.\n      * @param crowdsaleAddr The invoice crowdsale address.\n      */\n    function refundLosingGroups(address crowdsaleAddr) public {\n        iCrowdsale CS = iCrowdsale(crowdsaleAddr);\n\n        if (States(CS.getStatus()) != States.Closed) { return; }\n\n        bytes32 currency = CS.currencySymbol();\n        uint groupsCount = CS.getGroupsCount();\n        uint winnerGroupIndex = CS.winnerGroupIndex();\n\n        // Loop all bidding groups\n        for (uint groupIndex = 0; groupIndex < groupsCount; groupIndex++) {\n            uint biddersCount;\n            bool hasReceivedTokensBack;\n            ( , , biddersCount, , hasReceivedTokensBack) = CS.getGroup(groupIndex);\n\n            // Check if group is not winner group and has not already been refunded\n            if (groupIndex != winnerGroupIndex && hasReceivedTokensBack == false) {\n                // Loop all bidders\n                for (uint bidderIndex = 0; bidderIndex < biddersCount; bidderIndex++) {\n                    bytes32 bidderId;\n                    uint bidAmount;\n                    bool bidderHasReceivedTokensBack;\n                    (bidderId, , bidAmount, bidderHasReceivedTokensBack) = CS.getGroupBidder(groupIndex, bidderIndex);\n\n                    // Check if bidder has already been refunded\n                    if (bidderHasReceivedTokensBack == false) {\n                        // Refund bidder\n                        _transfer(currency, LEDGER_SYSTEM_ACCOUNT, bidderId, bidAmount);\n                        \n                        // Save bidder refund in Crowdsale contract\n                        CS.setBidderHasReceivedTokensBack(groupIndex, bidderIndex);\n\n                        EventLosingGroupBidderRefunded(crowdsaleAddr, groupIndex, bidderId, currency, bidAmount);\n                    }\n                }\n            }\n        }\n    }\n\n    /** @dev Transfers refund to a bidder after crowdsale has closed.\n      * @param crowdsaleAddr The invoice crowdsale address.\n      * @param groupIndex Group id used to find group among collection of groups.\n      * @param bidderIndex Bidder id used to find bidder among collection of bidders in a group.\n      */\n    function refundLosingGroupBidder(address crowdsaleAddr, uint groupIndex, uint bidderIndex) public {\n        iCrowdsale CS = iCrowdsale(crowdsaleAddr);\n\n        if (States(CS.getStatus()) != States.Closed) { return; }\n\n        if (CS.winnerGroupIndex() == groupIndex && CS.getHasWinnerGroup() == true) {return;} //bug fix - check hasWinnerGroup is set in crowdsale\n\n        bytes32 bidderId;\n        uint bidAmount;\n        bool bidderHasReceivedTokensBack;\n        (bidderId, , bidAmount, bidderHasReceivedTokensBack) = CS.getGroupBidder(groupIndex, bidderIndex);\n\n        if (bidderHasReceivedTokensBack == false && bidderId.length != 0) {\n            bytes32 currency = CS.currencySymbol();\n            _transfer(currency, LEDGER_SYSTEM_ACCOUNT, bidderId, bidAmount);\n            \n            // Save bidder refund in Crowdsale contract\n            CS.setBidderHasReceivedTokensBack(groupIndex, bidderIndex);\n\n            EventLosingGroupBidderRefunded(crowdsaleAddr, groupIndex, bidderId, currency, bidAmount);\n        }\n    }\n\n    /** @dev Transfers payment to invoice crowdsale contract waiting for payment.\n      * @param crowdsaleAddr The invoice crowdsale address.\n      * @param paidAmount The amount to be paid.\n      */\n    function invoicePaymentReceived(address crowdsaleAddr, uint paidAmount) public onlyServer {\n        iCrowdsale CS = iCrowdsale(crowdsaleAddr);\n\n        //if (States(CS.getStatus()) != States.WaitingForInvoicePayment || CS.sentToWinnerGroup() == true) { return; }   \n\n        assert(States(CS.getStatus()) == States.WaitingForInvoicePayment || CS.sentToWinnerGroup() == true);   \n\n        require(CS.invoiceAmount() <= paidAmount);\n\n        bytes32 currency = CS.currencySymbol();\n        _mintTokens(currency, paidAmount);\n\n        CS.setPaidAmount(paidAmount);\n        \n        EventPaymentReceived(crowdsaleAddr, currency, paidAmount);\n    }\n    \n    /** @dev Transfers funds/payment to bidders in winner group based on contributions/total bid.\n      * @param crowdsaleAddr The invoice crowdsale address.\n      */\n    function fundWinnerGroup(address crowdsaleAddr) public {\n        iCrowdsale CS = iCrowdsale(crowdsaleAddr);\n\n        if (States(CS.getStatus()) != States.PaymentReceived) { return; }\n\n        uint winnerGroupIndex = CS.winnerGroupIndex();\n        uint biddersCount;\n        uint amountRaised;\n        bool hasReceivedTokensBack;\n\n        (, , biddersCount, amountRaised, hasReceivedTokensBack) = CS.getGroup(winnerGroupIndex);\n\n        if (hasReceivedTokensBack == true) { return; }\n\n        bytes32 currency = CS.currencySymbol();\n        uint paidAmount = CS.paidAmount();\n\n        for (uint bidderIndex = 0; bidderIndex < biddersCount; bidderIndex++) {\n            bytes32 bidderId;\n            uint bidAmount;\n            bool bidderHasReceivedTokensBack;\n            (bidderId, , bidAmount, bidderHasReceivedTokensBack) = CS.getGroupBidder(winnerGroupIndex, bidderIndex);\n\n            // Check if bidder has already been funded\n            if (bidderHasReceivedTokensBack == true) { continue; }\n\n            // Fund winning bidder based on his contribution\n            uint benefitsAmount = bidAmount * paidAmount / amountRaised;\n\n            _transfer(currency, LEDGER_SYSTEM_ACCOUNT, bidderId, benefitsAmount);\n            \n            // Save bidder refund in Crowdsale contract\n            CS.setBidderHasReceivedTokensBack(winnerGroupIndex, bidderIndex);\n\n            EventWinnerGroupBidderFunded(crowdsaleAddr, winnerGroupIndex, bidderId, currency, bidAmount, benefitsAmount);\n        }\n    }\n\n    /** @dev Transfers funds/payment to a bidder in winner group.\n      * @param crowdsaleAddr The invoice crowdsale address.\n      * @param bidderIndex The ID used to find the bidder among collection of bidders in the winner group  with winnerGroupIndex.\n      */\n    function fundWinnerGroupBidder(address crowdsaleAddr, uint bidderIndex) public {\n        iCrowdsale CS = iCrowdsale(crowdsaleAddr);\n\n        if (States(CS.getStatus()) != States.PaymentReceived) { return; }\n\n        uint winnerGroupIndex = CS.winnerGroupIndex();\n        \n        bytes32 bidderId;\n        uint bidAmount;\n        bool bidderHasReceivedTokensBack;\n        (bidderId, , bidAmount, bidderHasReceivedTokensBack) = CS.getGroupBidder(winnerGroupIndex, bidderIndex);\n\n        if (bidderHasReceivedTokensBack == false && bidderId.length != 0) {\n            uint amountRaised;\n            (, , , amountRaised, ) = CS.getGroup(winnerGroupIndex);\n\n            bytes32 currency = CS.currencySymbol();\n            uint paidAmount = CS.paidAmount();\n            // Fund winning bidder based on his contribution\n            uint benefitsAmount = bidAmount * paidAmount / amountRaised;\n\n            _transfer(currency, LEDGER_SYSTEM_ACCOUNT, bidderId, benefitsAmount);\n            \n            // Save bidder refund in Crowdsale contract\n            CS.setBidderHasReceivedTokensBack(winnerGroupIndex, bidderIndex);\n\n            EventWinnerGroupBidderFunded(crowdsaleAddr, winnerGroupIndex, bidderId, currency, bidAmount, benefitsAmount);\n        }\n    }    \n    /**\n    END OF CROWDSALE MODULE\n    */\n\n    /**\n    START OF PPT DEPOSIT MODULE\n    */\n\n    // NON-CONSTANT METHODS\n\n    function createDepositContract(bytes32 clientId) public onlyServer {\n        // Creates a new deposit contract linked to a client ID\n        address depositContractAddress = iDepositContractsManager(DCM).create(clientId);\n        // Event triggered when deposit contract is created\n        EventNewDepositContract(clientId, depositContractAddress);\n    }\n\n    /** @dev Deposits an amount of tokens linked to a client ID.\n      * @dev client receives the receiveAmount in the receiveCurrency\n      * @dev the amount is sent from populous and linked to clientId \n      * @dev on the ledger in the specified currency\n      * @dev When the actor deposits funds into the platform, \n      * @dev an equivalent amount of tokens is deposited into his account.\n      * @param clientId The client ID.\n      * @param populousTokenContract The Populous token contract.\n      * @param receiveCurrency The currency symbol.\n      * @param depositAmount The deposit amount.\n      * @param receiveAmount The receive amount.\n      * @return bool boolean value indicating whether or not a deposit transaction has been made with success.\n      */\n    function deposit(\n        bytes32 clientId,\n        address populousTokenContract,\n        bytes32 receiveCurrency,\n        uint depositAmount,\n        uint receiveAmount\n    )\n        public onlyServer returns (bool)\n    {\n        bool success;\n        uint depositIndex;\n        \n        // success and depositIndex are both returned from the deposit method of\n        // iDepositContractsManager\n        (success, depositIndex) = iDepositContractsManager(DCM).deposit(\n            clientId,\n            populousTokenContract,\n            receiveCurrency,\n            depositAmount,\n            receiveAmount\n        );\n\n        if (success) {\n            _mintTokens(receiveCurrency, receiveAmount);\n            _transfer(receiveCurrency, LEDGER_SYSTEM_ACCOUNT, clientId, receiveAmount);\n\n            EventNewDeposit(clientId, populousTokenContract, receiveCurrency, depositAmount, receiveAmount, depositIndex);\n            return true;\n        }\n        return false;\n    }\n\n    /** @dev Releases a deposit to an address/wallet.\n      * @param clientId The client ID.\n      * @param populousTokenContract The token contract.\n      * @param releaseCurrency The currency symbol.\n      * @param receiver The address/wallet of the receiver.\n      * @param depositIndex The index/location of a specific deposit.\n      * @return bool boolean value indicating whether or not a deposit has been updated with success.\n      */\n    function releaseDeposit(\n        bytes32 clientId, \n        address populousTokenContract,\n        bytes32 releaseCurrency,\n        address receiver,\n        uint depositIndex\n    )\n        public\n        onlyServer\n        returns (bool)\n    {\n        bool success;\n        uint deposited;\n        uint received;\n\n        (success, deposited, received) = iDepositContractsManager(DCM).releaseDeposit(\n            clientId,\n            populousTokenContract,\n            releaseCurrency,\n            receiver,\n            depositIndex\n        );\n\n        if (success) {\n            _transfer(releaseCurrency, clientId, LEDGER_SYSTEM_ACCOUNT, received);\n            _destroyTokens(releaseCurrency, received);\n\n            EventDepositReleased(clientId, populousTokenContract, releaseCurrency, deposited, received, depositIndex);\n            return true;\n        }\n        return false;\n    }\n    /**\n    END OF PPT DEPOSIT MODULE\n    */\n}",
  "sourcePath": "/Users/wisdom/Documents/GitHub/populous-smartcontracts/contracts/Populous.sol",
  "schemaVersion": "1.0.0",
  "updatedAt": "2018-01-30T16:55:01.761Z"
}